:020000040800F2
:10000000A04C0020A5020008E50F0008EF0C000836
:10001000E10F0008B5050008E51900080000000020
:100020000000000000000000000000000D020008B9
:100030006507000800000000510200089D17000835
:10004000BF020008BF020008BF020008BF0200088C
:10005000BF020008BF020008BF020008BF0200087C
:10006000BF020008BF020008BF020008BF0200086C
:10007000BF020008BF020008690600087F060008EA
:10008000BF020008BF020008BF020008BF0200084C
:10009000BF020008BF020008BF020008BF0200083C
:1000A000BF020008BF020008BF020008BF0200082C
:1000B000BF020008BF020008BF020008BF0200081C
:1000C000BF020008BF020008BF020008BF0200080C
:1000D000BF0200080D190008BF020008BF02000897
:1000E000BF020008BF020008BF020008BF020008EC
:1000F000BF020008BF020008BF020008BF020008DC
:10010000BF020008BF020008BF020008BF020008CB
:10011000BF020008BF020008BF020008BF020008BB
:10012000BF020008BF020008BF020008BF020008AB
:1001300000F002F800F05AF80AA090E8000C82449F
:100140008344AAF10107DA4501D100F04FF8AFF27C
:10015000090EBAE80F0013F0010F18BFFB1A43F0A5
:10016000010318473C3A00005C3A00000A444FF093
:10017000000C10F8013B13F0070408BF10F8014B06
:100180001D1108BF10F8015B641E05D010F8016B4B
:10019000641E01F8016BF9D113F0080F1EBF10F8AF
:1001A000014BAD1C0C1B09D16D1E58BF01F801CBD2
:1001B000FAD505E014F8016B01F8016B6D1EF9D555
:1001C0009142D6D37047000000230024002500266A
:1001D000103A28BF78C1FBD8520728BF30C148BFAA
:1001E0000B6070471FB51FBD10B510BD00F0F4F8CF
:1001F0001146FFF7F7FF01F07DFD00F012F903B49F
:10020000FFF7F2FF03BC00F019F90000224B196858
:100210000868B0E8F00F80F30988BFF36F8F4FF0E4
:10022000000080F311884EF00D0E704700000000B2
:1002300006480068006880F3088862B661B6BFF3BC
:100240004F8FBFF36F8F00DF00BF00BF08ED00E0EE
:10025000EFF30980BFF36F8F0F4B1A6820E9F00F9F
:10026000106008B54FF0500080F31188BFF34F8F36
:10027000BFF36F8F02F0B6FA4FF0000080F31188E1
:10028000BDE8084019680868B0E8F00F80F30988F5
:10029000BFF36F8F704700BF04010020EFF30580AC
:1002A000704700000948804709480047FEE7FEE71D
:1002B000FEE7FEE7FEE7FEE7FEE7FEE7FEE7FEE716
:1002C00004480549054A064B70470000BD17000861
:1002D00031010008A0460020A04C0020A0480020CA
:1002E000A0480020032A40F2308010F0030C00F0F8
:1002F000158011F8013BBCF1020F624498BF11F860
:1003000001CB00F8013B38BF11F8013BA2F1040218
:1003100098BF00F801CB38BF00F8013B11F0030390
:1003200000F02580083AC0F0088051F8043B083AF4
:1003300051F804CBA0E80810F5E7121D5CBF51F896
:10034000043B40F8043BAFF30080D20724BF11F810
:10035000013B11F801CB48BF11F8012B24BF00F875
:10036000013B00F801CB48BF00F8012B704710B5E6
:10037000203AC0F00B80B1E81850203AA0E818509D
:10038000B1E81850A0E81850BFF4F5AF5FEA027C5E
:1003900024BFB1E81850A0E8185044BF18C918C0CD
:1003A000BDE810405FEA827C24BF51F8043B40F86E
:1003B000043B08BF7047D20728BF31F8023B48BF53
:1003C00011F8012B28BF20F8023B48BF00F8012B91
:1003D0007047704770477047754600F02BF8AE467F
:1003E00005006946534620F00700854618B020B541
:1003F000FFF766FFBDE820404FF000064FF0000712
:100400004FF000084FF0000B21F00701AC46ACE8BC
:10041000C009ACE8C009ACE8C009ACE8C0098D4629
:10042000704710B50446AFF300802046BDE8104089
:10043000FFF7E5BE004870474046002001491820FC
:10044000ABBEFEE726000200704700001CB5012489
:1004500002F096F803220021012002F099FA1C49CB
:1004600008601C48052100232202CDE900101AA1D2
:100470001D4802F041FC04461C480A2100234FF4A9
:100480008072CDE900101AA11D4802F035FC044627
:100490001C48042100238A01CDE900101AA11E483E
:1004A00002F02AFC04461D48092100234FF4807203
:1004B000CDE900101AA11E4802F01EFC044600BF40
:1004C0001C48006802F0CCF802F06CF81CBD00007B
:1004D000140000200400002052756E506167655FB3
:1004E0005461736B0000000029150008080000200B
:1004F0004465616C446174615F5461736B0000001A
:10050000570700080C0000204B65794465616C5F5B
:100510005461736B00000000FD0E00081000002005
:10052000436F6D4465616C5F5461736B0000000044
:1005300035060008000000200149086070470000EF
:1005400088860D42014908607047000000860D4210
:1005500010B58CB000241C22134905A8FFF707FF33
:10056000002003900490104A1C3207CA8DE807004F
:10057000092001F0D1F8242001F02EFB00F0BAFB95
:1005800001F09CF9072209490A2001F041FA3221C1
:10059000074801F043FF04464FF4407000F024FD8B
:1005A00000F0CAFC0CB010BD80330008EC02002043
:1005B0005C01002000BFFEE7FCB504460D464FF687
:1005C000FF70019048F2050700200090002626E009
:1005D00014F8010B00906946684600F072FCBDF803
:1005E00004009DF8001080EA01200190002614E02C
:1005F000BDF8040000F4004030B1BDF8040087EA03
:10060000400080B2019006E0BDF804004FF6FF7193
:1006100001EA40000190701CC6B2082EE8DB281EDB
:10062000A5F10105D4D101A901A800F02DFCBDF868
:100630000400FCBD11E000235A1E1946074800685B
:1006400002F0C2F90648006801F07CFB0821054869
:1006500000F074F8012001F0E9FFECE7140000203D
:10066000F80000204400024010B54FF4005000F0A4
:100670003DF818B14FF4805000F01AF810BD10B5D5
:100680004FF4003000F032F8012802D1400400F0AD
:1006900001F810BD00F0805111B10349086001E07C
:1006A0000249486070470000040402400000024014
:1006B00000F0805111B10349086001E0024948602F
:1006C00070470000040402400000024021B10268AB
:1006D00042F00102026004E002684FF6FE731A4025
:1006E000026070470146486880B2704701460020AA
:1006F000002201F0805313B1054B1A6801E0054B4D
:100700001A6802EA01030BB1012000E000207047E3
:10071000000402400000024070B504460D4600216E
:100720002046FFF7D3FF2946204600F005F80121B7
:100730002046FFF7CBFF70BD4160704770B504469F
:100740000D4600212046FFF7C1FF656001212046CC
:10075000FFF7BCFF70BD04E000F018FE022001F0BE
:1007600065FFF9E77047002106E0022100BF0A1E7D
:10077000A1F1010399B2FAD1021EA0F1010398B2CE
:10078000F3D1704730B504460D462078554A81189C
:100790000122122001F03CF96078524A81180122AE
:1007A000142001F035F9A0784E4A115C162001F0B2
:1007B00069F9A0784B4A105C0111112001F062F92F
:1007C000E078494A811801220F2001F021F92079AF
:1007D000454A811801220D2001F01AF96079424A38
:1007E000811801220B2001F013F9052D79D0012D7C
:1007F00008DC605D3B49085C40F01000615D394AEF
:10080000505414E0022D08D1605D3649085C40F078
:100810001000615D334A505409E0022D07DD605D30
:100820003149085C40F00100615D2F4A50542F4867
:10083000D0F8A000A8BB052D32D2DFE805F0030BED
:10084000132129002078274A81180122122001F063
:10085000DFF825E06078234A81180122142001F096
:10086000D7F81DE0A0781F4A115C162001F00AF9A4
:10087000A0781C4A105C0111112001F003F90FE06F
:10088000E078194A811801220F2001F0C1F807E031
:100890002079154A811801220D2001F0B9F800BF16
:1008A00000BF012D08DC605D0E49085C00F0EF0020
:1008B000615D0C4A505414E0022D08D1605D094975
:1008C000085C00F0EF00615D064A505409E0022D1B
:1008D00007DD605D0449085C00F0FE00615D024ACE
:1008E000505430BD4C0000206A000020240200203B
:1008F0002DE9FF4105460E460020029003908046F8
:1009000000273648854200DD05463548854200DA35
:100910000546002D03DB00208DF8050003E06D4245
:1009200001208DF80500052425E03DB10A2095FB46
:10093000F0F100FB115002A9085518E0B8F1000FC2
:1009400001D104F0FF089DF8050038B9C4F1050095
:10095000B0420CD9102002A9085508E0C4F10500E6
:10096000B04204D9102002A9085507B9E7B20A20FD
:1009700095FBF0F5641E002CD7DA9DF8050090B1C8
:10098000C7F10500B04203D9112002A9C8550AE0F9
:10099000B8F1000F04D01121781E02AA115402E010
:1009A000112002A9C855002406E0C6F10500A042A6
:1009B00001D106B102E0641C052CF6DB00BF142E49
:1009C00005D31021A6F1140002AA11540524E1B2A6
:1009D00002A8FFF7D7FEBDE8FF8100003F420F00ED
:1009E0006179FEFF0149C8607047000000200240A5
:1009F00030B5044604254FF4302000F085F8054654
:100A0000042D17D10C48006940F002000A49086122
:100A100008464461006940F0400008614FF430200E
:100A200000F072F805460448006941F6FD7108407F
:100A300001490861284630BD0020024004200B49CE
:100A4000C96801F0010109B101200EE00749C96838
:100A500001F0040109B1022007E00449C96801F06E
:100A6000100109B1032000E004207047002002407B
:100A70000348006940F080000149086170470000A8
:100A80000020024078B506460C4604250020009060
:100A9000E80200F039F80546042D24D11348006916
:100AA00040F00100114908613480E80200F02CF8A0
:100AB0000546042D10D1B01C0090200C0099088030
:100AC000E80200F021F805460848006941F6FE7189
:100AD00008400649086106E00448006941F6FE71D5
:100AE000084002490861284678BD00000020024005
:100AF000024803494860034848607047230167453E
:100B000000200240AB89EFCD00B502460423FFF779
:100B100095FF034603E0FFF791FF0346521E012BAA
:100B200001D1002AF7D102B90523184600BD2DE9ED
:100B3000F041024600250026002000230024002763
:100B400091F803C00CF00F0591F803C00CF0100CE5
:100B5000BCF1000F03D091F802C04CEA050591F8F2
:100B600000C0BCF1000F31D0146800202BE04FF022
:100B7000010C0CFA00F3B1F800C00CEA03069E4227
:100B800020D183004FF00F0C0CFA03F7BC4305FA99
:100B900003FC4CEA040491F803C0BCF1280F06D111
:100BA0004FF0010C0CFA00FCC2F814C00AE091F8F6
:100BB00003C0BCF1480F05D14FF0010C0CFA00FC4A
:100BC000C2F810C0401C0828D1D31460B1F800C08E
:100BD000BCF1FF0F34DD546800202EE000F1080C5A
:100BE0004FF0010808FA0CF3B1F800C00CEA030654
:100BF0009E4221D183004FF00F0C0CFA03F7BC4347
:100C000005FA03FC4CEA040491F803C0BCF1280F78
:100C100005D100F1080C08FA0CF8C2F8148091F81C
:100C200003C0BCF1480F07D100F1080C4FF00108D8
:100C300008FA0CF8C2F81080401C0828CED3546083
:100C4000BDE8F081F0B50A4600230024002100250C
:100C500000F00046B6F1004F02D11D4EF16901E0EF
:100C60001B4E7168C0F3034583B200F44016B6F51D
:100C7000401F08D121F07061154E766826F070662D
:100C8000134F7E6012E000F48016B6F5801F06D187
:100C9000032606FA05F4A14341F0706106E0460D13
:100CA000360103FA06F6B14341F0706122B1460DF8
:100CB000360103FA06F6314300F00046B6F1004F64
:100CC00002D1034EF16101E0014E7160F0BD000000
:100CD000000001400246002093680B400BB1012048
:100CE00000E000207047416170470161704700BF1C
:100CF000FEE7000070B500261C2600F02FFF00F074
:100D00004FFF604800684DF6FF7108405D4908607C
:100D1000FA2000F079FFFA2000F076FF59480068C9
:100D20004DF6FF7108405749086000BF4FF48051ED
:100D300054480C38FFF7CEFF0028F7D0002414E009
:100D40005048006840F400504E4908601420FFF7F6
:100D50000AFD4C4800684DF6FF710840494908609B
:100D60001420FFF700FD601CC4B21D2CE8DBCA256F
:100D700000F024FF002427E04248006840F40050BF
:100D8000404908601420FFF7EEFC05F0800030B108
:100D90003C48006840F480503A49086006E0394811
:100DA00000684EF6FF710840364908606806050E77
:100DB000344800684DF6FF7108403249086014203D
:100DC000FFF7D1FC601CC4B2072CD5DB2D480068AE
:100DD00040F400502B4908601420FFF7C4FC294858
:100DE00000684DF6FF710840264908601420FFF79F
:100DF000BAFC3546002427E02248006840F4005041
:100E0000204908601420FFF7AEFC05F0800030B1E7
:100E10001C48006840F480501A49086006E01948F0
:100E200000684EF6FF710840164908606806050E16
:100E3000144800684DF6FF710840124908601420FC
:100E4000FFF791FC601CC4B2082CD5DB0D4800688C
:100E500040F480500B4908600846006840F4005098
:100E600008601420FFF77FFC064800684DF6FF710C
:100E70000840044908601420FFF775FC00F090FE5C
:100E800070BD00000C0C01403CB502460023ADF8DB
:100E9000003000200FE00B880124844023404BB138
:100EA000BDF80030C0F10F050124AC4023439BB2D4
:100EB000ADF80030401C1028EDDBBDF80030138089
:100EC0003CBD38B5024600238DF8003000200FE00D
:100ED0000B780124844023404BB19DF80030C0F1D1
:100EE00007050124AC402343DBB28DF80030401CE1
:100EF0000828EDDB9DF80030137038BD12E00A4879
:100F0000006800F0A7FE0948006800F0A3FE08484A
:100F100000680849884202D300200549086009207A
:100F200001F084FBEBE70000BC000020C0000020C3
:100F3000FC00002000CA9A3B08B50121082000F0FF
:100F4000FBF94FF40470ADF8000048208DF8030061
:100F500003208DF8020069460148FFF7E8FD08BD4F
:100F6000000C014000B5002015490861C86014203C
:100F7000486100208861C8610846006840F00100AF
:100F80000860084640680F4908400D494860084617
:100F900000680D4908400A4908600846006820F4C6
:100FA000802008600846406820F4FE004860002069
:100FB000886000214FF0006000F008F800BD0000DC
:100FC000001002400000FFF8FFFFF6FE024A0A4050
:100FD0000243024B1A60704780FFFF1F08ED00E0DC
:100FE00000BFFEE77047000002490143024A11605A
:100FF000704700000000FA050CED00E02DE9F84F05
:1010000080460E4617464FF0000BBA48006D10B1EF
:10101000012838D11AE0B8484FF496710268B748F1
:10102000006800F0E1FC80B1B3480068B449086092
:10103000B1480068B1490860AE48006D401CAD4938
:101040000865486D0521FFF753FC20E0AA484FF4DE
:1010500096710268AA48006800F0C6FC90B1A648E4
:101060000068A6490860A4480068A5490860A54A28
:10107000126802F114019F4A506DFFF739FC0020FD
:101080009C49086503E000209A49086500BF00BF3D
:101090009848806D20B1012827D0022824D155E03E
:1010A000002508E0984850F82500B04202D8681C96
:1010B000C5B200E001E00A2DF4DB00BF93480570E3
:1010C0000520904908600020914908708948406DCA
:1010D0009049086001208749886517B18E490860EA
:1010E00002E000208C49086000E13D468548006828
:1010F000C0F10500844951F82040884804607D48CB
:10110000406D00280FDB7B48406D04EB84014900F3
:10111000B0FBF1F201FB120080490968B0FBF1F06D
:101120007B4908700CE07348406D4042B0FBF4F11D
:1011300004FB110079490968B0FBF1F074490870AB
:101140006C48806D401C6B498865CFE0744800682E
:10115000007804286FD16748406D00280ADB654895
:10116000406D6B4909786D4A126801FB12006149B4
:10117000486509E05F48416D65480078674A126834
:1011800000FB02105B49486561480078401C6049DB
:1011900008705C48006848BB5C48007830B308467B
:1011A00000785E49096800FB01F45248406D002850
:1011B00008DA5048406D40424E4948650020544985
:1011C00008700024B44220D9B8F1000F04DB0024D9
:1011D00000204F49087018E000244648406D404206
:1011E0004449486500204A4908700EE048480078A4
:1011F0000A2190FBF1F201FB1200454908700846F4
:1012000000784649096800FB01F43A48406D00281F
:1012100005DB3848406D20443649486504E03548D0
:10122000406D001B33494865022032498865002023
:101230003B49096808703A4800680078052803D1DE
:10124000002037490968087036480068007804288B
:101250001FD12C480068401E2A4908602B4800789E
:10126000C0F105000968884202DB052025490860B5
:1012700001202049886523480068002802DA0520FB
:101280002049086001201B4988650020254909681C
:101290000870244800680078052826D100202149DC
:1012A000096808701349086801F086FF82461149F1
:1012B000486D01F081FF5146009001F09FFE81468C
:1012C0001949486901F078FF4946009001F08CFF08
:1012D000824601F055FF1449486100200549C1F8D4
:1012E000A0003221104801F0C3FA00BF00BFBDE8E2
:1012F000F88F000024020020FC0000203C000020A9
:101300004000002030000020783B0008340000201E
:101310003500002044000020480000203800002054
:10132000C0000020BC0000205C01002001490862D0
:101330007047000000000E4229B1064A926902433C
:10134000044B9A6104E0034A92698243014B9A611B
:10135000704700000010024000210B4A11700A4A39
:10136000203A82F82010012802D0042808D103E096
:101370000121054A117004E00521034A117000E0C3
:1013800000BF00BF70470000201002402DE9F05F51
:10139000002400264FF480515C48FFF79BFC002896
:1013A00075D100BF21E0640058480C30006840F45B
:1013B000005056490C3108601420FFF7D4F9534807
:1013C0000C3000684DF6FF71084050490C31086040
:1013D0001420FFF7C8F94FF480514C48FFF77AFC0E
:1013E00008B144F00104701CC6B2182EDBDB47487C
:1013F0000C30006840F4005044490C31086014205F
:10140000FFF7B1F941480C3000684DF6FF71084014
:101410003E490C3108601420FFF7A5F93B480C3019
:10142000006840F4005039490C3108601420FFF77F
:101430009AF936480C3000684DF6FF710840334980
:101440000C3108601420FFF78EF930480C3000682A
:1014500040F400502D490C3108601420FFF783F947
:101460002A480C3000684DF6FF71084027490C31BE
:1014700008601420FFF777F92411254825490968E9
:1014800040F8214000272348056800260AE03BE099
:101490001F4850F8250007446D1E002D00DC0A256A
:1014A000701CC6B20A2EF3DB092097FBF0F01A4934
:1014B000086018480068401C164908600846006823
:1014C0000A2801DB0020086014488069241A1348A8
:1014D0004069002803DC4FF4FA70104948610F4955
:1014E000486901F069FE8246204601F065FE8346A8
:1014F000514601F079FE8146094901F07FFD8046A1
:1015000001F03EFE07490860BDE8F09F000C014075
:101510000C030020A8000020AC0000205C0100208B
:1015200000504347240200201CB538A103C9CDE96F
:10153000000169E03748D0F8A00020B101284CD064
:1015400002285DD156E0334908680021FFF7D0F941
:1015500031480068007805280CD1304800683049CF
:10156000886100202C490968087032212C4801F05C
:101570007FF908E0284800680078042803D100209B
:1015800025490968087027480068007805281AD19D
:1015900001202049C1F8A000234804680C208DF8E0
:1015A00003000A208DF8040012208DF8050008467B
:1015B0000068486505216846FFF7E4F800201949EE
:1015C0000968087008E0174800680078042803D10B
:1015D000002014490968087012E0134840F2DC51F9
:1015E0000268204600F000FA18B102200949C1F84B
:1015F000A00005E005220D490D48FFF7FFFC00BFE4
:1016000000BF642001F012F894E7000010101010E1
:101610001010000024020020C0000020AC000020B8
:101620005C010020BC000020FC0000203F420F00B5
:101630006179FEFF10B500F001F810BD0CB5002077
:10164000019000903248006840F4803030490860D2
:1016500000BF2F48006800F4003000900198401C43
:101660000190009818B90198B0F5A06FF1D1284801
:10167000006800F4003010B10120009001E000206B
:1016800000900098012841D12248006840F01000E5
:10169000204908600846006820F0030008600846FA
:1016A000006840F001000860194840681849486027
:1016B00008464068486008464068486008464068F8
:1016C00020F47C1048600846406840F4F8104860F8
:1016D0000846006840F08070086000BF0C48006851
:1016E00000F000700028F9D00948406820F003009D
:1016F000074948600846406840F00200486000BF63
:101700000348406800F00C000828F9D10CBD000027
:10171000001002400020024070B504460025FFF78B
:1017200021FC1C48006840F001001A49086000BF15
:101730001848006840080028FAD000201549486081
:10174000A01EC4B20846406840EA8440486012487F
:10175000006840F03200104908600E48006840F010
:1017600080700C49086000BF0A480068400E0028DD
:10177000FAD00848406840F002000649486005E099
:1017800004484068C0F3870505F00305022DF7D132
:1017900070BD0000001002400020024010B5064855
:1017A0000068401C0449086001F0D6FA012801D005
:1017B00001F0D4F810BD0000FC00002010B5134863
:1017C000006840F00100114908600846406810496F
:1017D00008400E494860084600680E4908400B4919
:1017E00008600846006820F48020086008464068C9
:1017F00020F4FE0048604FF41F008860FFF71AFFD6
:101800004FF000600449086010BD00000010024065
:101810000000FFF8FFFFF6FE08ED00E008B501212B
:101820003920FFF789FD01212048FFF70BFA01203D
:10183000FFF77CFD0020FFF78FFD0020FEF782FE02
:101840004FF44040ADF8000010208DF80300032055
:101850008DF8020069461648FFF769F948F208005A
:10186000ADF8000069461348FFF761F94FF40041F5
:101870001048FFF738FA08210E48FFF734FA08211C
:101880000C48FFF732FA0121C803FFF7DBF901200A
:10189000ADF8000069460848FFF749F90020FFF756
:1018A00045FD0020FEF748FE08BD000000023000A4
:1018B00000100140000C01400014014010B5FFF77A
:1018C000ADFF01200E4908600E49C1F8BC010E4968
:1018D000086000BF012000F0AFF9522000F0BAF814
:1018E000302000F0B7F8002000F0B4F80A2000F033
:1018F000B1F8022000F0AEF8062000F0ABF810BD01
:101900008081224200002242B801224210B540F2FA
:1019100024411B4800F03CF860B31948008819497D
:10192000096881F832001648001D008815490968C9
:1019300081F8320000211448FEF7C8FE4FF4003051
:10194000FEF7B6FE4FF40020FEF7B2FE0E48FEF79B
:10195000C9FEC0F120000B49096881F8320001215D
:101960000948FEF7B3FE00231A46194607480068E7
:1019700001F008F920210448FEF7CEFE00BF10BD9B
:1019800000380140F80000205800024014000020F8
:1019900070B50246002400230025002040F66A1698
:1019A000B14200D100BFC1F3421501F01F0301266F
:1019B00006FA03F3012D02D19689334006E0022D89
:1019C00002D1168A334001E0968A33400C12012678
:1019D00006FA04F41688344013B10CB1012000E07B
:1019E000002070BD00BFFEE710B503460C469A42CA
:1019F00001D3D11A03E005481044401CC11AA1428A
:101A000001D3012010BD0020FCE7000000CA9A3B72
:101A1000F0B505460C46164600200D490860032126
:101A2000A02000F04DF8A906080E062100F048F8A5
:101A3000002706E02078082100F06AF8641C781C72
:101A4000C7B2B742F6DB01200149086000BFF0BD14
:101A50008081224210B5044600200849086000BF7A
:101A60000421802000F02CF80821204600F028F8FE
:101A700001200349C1F8800100BF10BD80812242CE
:101A80000080224230B504460D4600200A49086015
:101A90000321A02000F014F8A106080E062100F092
:101AA0000FF80421284600F033F801200349C1F85B
:101AB000800100BF30BD00008081224200802242B0
:101AC00010B5002216E000230F4C236000F08003C5
:101AD0001BB10123241F236003E000230A4C241FB1
:101AE000236000BF00BF0123074C23604306180E8C
:101AF000531CDAB28A42E6DB0023034C2360034C1A
:101B0000C4F8B83110BD0000BC01224200002242DE
:101B100010B5002215E000230E4C236000F00103F5
:101B20001BB10123241F236003E00023094C241F61
:101B3000236000BF00BF0123064C23604010531CEC
:101B4000DAB28A42E7DB0023024C2360024CC4F87D
:101B5000B83110BDBC0122420000224208B501216B
:101B60000820FFF7E9FB4FF40050ADF8000010200B
:101B70008DF8030003208DF8020069460748FEF740
:101B8000D6FF4FF48050ADF8000048208DF80300D8
:101B900069460248FEF7CBFF08BD0000000C01407B
:101BA0000548006820F47020034908600846006872
:101BB00040F4002008607047040C014005480068AC
:101BC00020F47020034908600846006840F4403063
:101BD00008607047040C01404FF0E021096921F0D2
:101BE00004014FF0E02211611146096941F0020140
:101BF000116141F2941151611146096941F00101ED
:101C000011610021916170470246094B19680BE090
:101C1000074B1868884201D3401A02E0054B034481
:101C2000581A904200D300E0F2E700BF704700006E
:101C3000FC00002000CA9A3B014605E0002000E0BD
:101C4000401CB0F5FA7FFBD30A1EA1F10101F5D1CA
:101C50007047000070B5044600F0F4FD0546207999
:101C600028402179884202D0207800283ED0207870
:101C7000062837D2DFE800F003091A2C34351C4857
:101C800000886080012020702FE01948006861887A
:101C9000401A142809D9207928402179884202D194
:101CA0000220207001E0002020701EE020792840F2
:101CB0002179884209D10E4800686188401AB0F540
:101CC0007A7F04D90320207001E0042020700CE00A
:101CD000207928402179884201D00520207004E035
:101CE00003E002E00020207000BF00BF70BD0000D4
:101CF000FC0000201CB50124FEF72AFCFFF746FB80
:101D00000A48012100238022CDE9001008A10C48D7
:101D100000F0F2FF0446012C02D100F029FD02E0A0
:101D20004FF0FF301CBD00BFFEE7000000000020A8
:101D30004170705461736B4372656174650000009B
:101D40004D04000830B5044620781949896B884253
:101D50002CD16078032813D194F83200401E255C02
:101D60004FF6FF7000EA052594F83200801E205CD3
:101D7000054394F83200811E2046FEF71DFC15E055
:101D80006078102812D194F83200401E255C4FF67E
:101D9000FF7000EA052594F83200801E205C0543A0
:101DA00094F83200811E2046FEF706FC30BD00008C
:101DB0005C0100202DE9F04105460E461C480768ED
:101DC0001C480068001D00F091FB50B919480068DC
:101DD00090F82C1001208840174909688143164863
:101DE0000160681C38B936B112480168091D1348F2
:101DF00000F0BAFB1AE07C190E4800684460BC424F
:101E000007D20C480168091D0D48006800F092FBDC
:101E10000CE008480168091D0A48006800F08AFBC8
:101E200009480068844201D207480460BDE8F08197
:101E300018010020040100201C0100202C060020B5
:101E40000C010020080100203401002010B50446D8
:101E500000F096FB23480068401C22490860224895
:101E6000006840B9204804600846006801280DD188
:101E700000F072F90AE01D48006838B91A48006895
:101E8000C06AE16A884201D81748046018480068AF
:101E9000401C1749086094F82C100120884015490F
:101EA0000968084313490860E16A01EB8101124A9D
:101EB00002EB8100211D00F057FB00F073FB0B4883
:101EC000006868B108480068C06AE16A884207D2C1
:101ED0004FF0805009490860BFF34F8FBFF36F8FF9
:101EE00010BD00001401002004010020200100208A
:101EF000300100201C0100205C03002004ED00E004
:101F000070B523E000F066FC1348006808B90120B2
:101F100000E00020054600F0FDFFBDB900F030FBF9
:101F20000D48C068C468201D00F0E0FA0B48006846
:101F3000401E0A4908600A480068401E08490860B7
:101F400000F030FB204600F057F800BF044800685E
:101F50000028D7D170BD0000180600201401002011
:101F60001001002070B504460D46206C70B1216C44
:101F7000E0680844E0606168E068884201D3206856
:101F8000E0602846226CE168FEF7ACF970BD2DE9EF
:101F9000F04104460F4615464FF00008A66B206C32
:101FA00028B37DB93946226CA068FEF79BF9216CF5
:101FB000A0680844A060D4E90110884217D32068C3
:101FC000A06014E03946226CE068FEF78BF9216CC2
:101FD000E068401AE0602168E068884203D2216C22
:101FE0006068401AE060022D01D106B1761E701CB7
:101FF000A0634046BDE8F08110B50446206B00F0B8
:10200000E1FA204600F0DEFA10BD000030B54FF4D2
:102010008043174800F007042CB1C01D20F00700D2
:10202000134C041B1B1B0246124C22600024114D52
:102030006C60D018083820F007000F4C2060002496
:102040000D4D2D686C600C4D2D682C601146441AA6
:102050004C60094C24680C60084D4C682C60084D9D
:102060004C682C604FF00044064D2C6030BD0000E1
:1020700040060020400100204801002050010020BF
:102080004C0100205401002000BFFFF739FF064833
:1020900000680128F9D94FF0805004490860BFF367
:1020A0004F8FBFF36F8FF0E75C03002004ED00E07B
:1020B0002DE9F04106460D4617469846069C0DB997
:1020C000246000E02760E66325640121204600F0DB
:1020D00019FDBDE8F0812DE9FF5F80460E4691466F
:1020E000DDE90E7A109CA9F10100216B01EB800B58
:1020F0002BF0070B002507E0715D04F1340041551A
:10210000705D00B902E06D1C102DF5D300BF0021F9
:1021100043200155202F00D31F27E762201D00F028
:1021200006FA04F1180000F002FA2461C7F1200059
:10213000A06164620020606484F84800414658460B
:10214000039A00F059F92060BAF1000F01D0CAF8E3
:102150000040BDE8FF9F000010B5002407E004EB3D
:1021600084010F4A02EB810000F0D4F9641C202C9A
:10217000F5D30C4800F0CEF90B4800F0CBF90B4832
:1021800000F0C8F90A4800F0C5F90A4800F0C2F9A1
:1021900004480949086004480849086010BD000067
:1021A0005C030020DC050020F00500200406002070
:1021B000180600202C060020080100200C01002039
:1021C00010B50146164800E0006803688B42FBD357
:1021D0000246436813448B4204D143684C6823444D
:1021E000436001460A464B6813440468A34211D178
:1021F0000C4C03682468A34208D04B6804686468E8
:1022000023444B6003681B680B6005E0054B1B68AB
:102210000B6001E003680B60884200D0016010BDD4
:10222000400100204801002070B5054600F0A8F9E3
:10223000A86B08B9012400E0002400F0B3F920469F
:1022400070BD70B5054600F09BF9A86BE96B88423C
:1022500001D1012400E0002400F0A4F9204670BD63
:102260000A490968096809B9012100E0002121B182
:102270004FF0FF31064A116006E004490968C96859
:10228000C868034A416811607047000008010020D7
:102290003401002000BF502080F31188BFF34F8F1E
:1022A000BFF36F8F00BF00BFFEE770B5044600F0BC
:1022B00067F994F9455010E0606A08B9012000E020
:1022C000002038B904F1240000F0E4FD18B100F05A
:1022D0002DFA00E003E0681E45B2002DECDC00BFE3
:1022E000FF2084F8450000F05DF900F049F994F909
:1022F000445010E0206908B9012000E0002048B9EE
:1023000004F1100000F0C6FD08B100F00FFA681EDD
:1023100045B200E001E0002DECDC00BFFF2084F8B6
:10232000440000F03FF970BD2DE9F04105464FF043
:10233000000800F04FFA2B48006808B9FFF766FE66
:10234000294800682840002847D145B1083505F0E4
:10235000070020B105F00700C0F108000544002D7A
:102360003BD022480068854237D8214E3046046869
:1023700001E0264624686068A84202D2206800284E
:10238000F7D118480068844227D0306800F1080867
:10239000206830606068401B102807D967196068A2
:1023A000401B786065603846FFF70AFF0F49606898
:1023B0000968081A0D490860084600680D4909684F
:1023C000884203D2094800680A49086006496068E3
:1023D0000968084360600020206000F09BFD4046D3
:1023E000BDE8F08148010020540100204C0100208C
:1023F0004001002050010020001F4FF08073036057
:10240000001F21F001030360001F034B0360143819
:102410000260203870470000952200082DE9F04145
:102420008EB005460F464FF0000800240026DFF866
:10243000B48000BF2FE0D8F8000045F824002C2C11
:1024400006D142F22C31D5F8B000884200D024E009
:1024500055F8240004EB8401234A02EBC1014968CA
:10246000884214DB55F8240004EB840152F8311043
:1024700088420CDC3046711CCEB201A90C5404EB2E
:102480008400114601EBC000806945F8240008F182
:102490000408601CC4B2BC42CDDB00BF42F22C3148
:1024A000D5F8B000884211D0002409E004EB840084
:1024B0000D4901EBC000806945F82400601CC4B2DE
:1024C000BC42F3DB3946284600F0D2F901A8805D12
:1024D00001A988551EB901200EB0BDE8F081002089
:1024E000FAE7000000B80108A833000801460A69AD
:1024F000D1E901309860D1E9010358605068884201
:1025000001D188685060002008611068401E10608A
:102510001068704700F1080141604FF0FF318160A1
:1025200000F10801C16001610021016070470021D4
:102530000161704710B502460B685C1C0CB910694C
:1025400007E002F1080000E04068446824689C420B
:10255000FAD944684C604C68A160886041600A61A7
:102560001468641C146010BD42684A6093688B60F4
:10257000936859609160086103685B1C0360704751
:1025800000BF502080F31188BFF34F8FBFF36F8FD0
:1025900000BF03480068401C014908607047000004
:1025A0005801002006480068401E0549086008469A
:1025B000006820B9002080F3118800BF00BF704779
:1025C0005801002070B506463546D6B1083D2C4668
:1025D0000C4960680968084098B1206888B90949C1
:1025E000606809688843606000F0F4F80649606834
:1025F00009680844044908602046FFF7E1FD00F03F
:1026000089FC70BD540100204C0100200648006880
:102610004FF47A71B0FBF1F0401E4FF0E0214861B9
:1026200007200861704700001C00002070B50446B8
:10263000002544B100F0CEF800212046FFF7BAFB98
:1026400000F068FC05463DB94FF080500349086032
:10265000BFF34F8FBFF36F8F70BD000004ED00E03C
:1026600070B50546FFF78CFF15B92748006800E0F4
:1026700028460446201DFFF739FF78B9E06A00EBD1
:102680008000224951F8200040B994F82C10012014
:1026900088401F49096881431D480160A06A18B13C
:1026A00004F11800FFF722FF1A480068401C19497E
:1026B000086015480068844209D1211D1648FFF7BB
:1026C00053FF16480068401C1449086009E014488C
:1026D0000068401E124908602046FFF78DFCFFF796
:1026E000BFFDFFF75FFF0F48006858B1064800685C
:1026F000844207D14FF080500B490860BFF34F8FE1
:10270000BFF36F8F70BD0000040100205C03002048
:102710001C010020300100201806002010010020BC
:10272000140100202001002004ED00E001200149F7
:10273000086070472801002070B505460C46054822
:10274000016818312846FFF7F5FE01212046FFF702
:1027500031FB70BD04010020034909680160034991
:1027600009684160704700002C010020180100201A
:102770001CB5114800210B468022CDE900100FA1A5
:10278000104800F0B9FA0446012C14D100BF5020C3
:1027900080F31188BFF34F8FBFF36F8F00BF4FF0EF
:1027A000FF300949086001200849086000200849F5
:1027B000086000F0B9F81CBD3801002049444C45C0
:1027C00000000000892000083401002020010020C2
:1027D0001801002002480068401C01490860704749
:1027E0003C0100201248006818B10120114908601E
:1027F0001DE000200F4908600F480068B0FA80F023
:10280000C0F11F0101EB81020C4B03EB8200426817
:102810005268426000F108024368934202D1426864
:10282000526842604268D268054B1A6000BF704728
:102830003C010020280100201C0100205C03002036
:102840000401002010B500244FF400710748FEF782
:1028500041FA08B944F0010410210448FEF73AFA9D
:1028600008B944F00204204610BD0000000C0140ED
:102870002DE9F05F06460F464FF000080024A346FE
:1028800000254FF004094FF0010AFEF731F94FF02F
:10289000050B3420FEF7A6F800BF08E020494A14D3
:1028A00002FB0810FEF7A4F8814608F10108D8459C
:1028B00002D2B9F1040FF1D0194C0DE028466A1C80
:1028C000D5B256F820102046FEF7DCF88146241DCC
:1028D000BD4201DB002505E01248844202D2B9F175
:1028E000040FEBD000BFFEF7C3F80D4C0EE02268DA
:1028F0002846691CCDB256F82000824201D04FF024
:10290000000A241DBD4201DB002505E00548844284
:1029100002D2BAF1000FEAD100BF5046BDE8F09FE5
:1029200000B8010800CC010810B50A48006840F45E
:102930007000084908600846006840F07040086070
:10294000FFF764FE002004490860FDF771FC0020D9
:1029500010BD000020ED00E05801002010B500BFC0
:10296000502080F31188BFF34F8FBFF36F8F00BFEC
:1029700000F002FA18B14FF080500449086000BF1F
:10298000002080F3118800BF10BD000004ED00E0BE
:102990002DE9F84307460D4690460DB9002601E0A3
:1029A00007FB05F606F14800FFF7BEFC044644B1FC
:1029B00004F1480943464A46294638460094FFF741
:1029C00077FB2046BDE8F8832DE9FF4782B0054636
:1029D00089461E464FF0000A2C4600BFFFF7D0FD87
:1029E000D4F83880B8F1000F36D0E7684946204661
:1029F000FFF7B8FAB6B9A8F10100A063206908B9D9
:102A0000012000E0002008BB04F1100000F042FAB1
:102A1000E0B14FF080503A490860BFF34F8FBFF3E9
:102A20006F8F13E0E760606A08B9012000E00020C2
:102A300060B904F1240000F02DFA38B14FF0805055
:102A40002F490860BFF34F8FBFF36F8FFFF7AAFDC9
:102A5000012006B0BDE8F087049818B9FFF7A2FD81
:102A60000020F6E7BAF1000F04D16846FFF774FEC4
:102A70004FF0010AFFF796FDFFF7ACFEFFF780FD70
:102A800094F94400401C10B9002084F8440094F9E3
:102A90004500401C10B9002084F84500FFF782FD76
:102AA00004A9684600F0FAF8F0B92046FFF7BCFB2D
:102AB000A0B104F124000499FFF73EFE2046FFF781
:102AC000F4FB00F027FA002888D14FF080500C4921
:102AD0000860BFF34F8FBFF36F8F7FE72046FFF78C
:102AE000E4FB00F017FA79E72046FFF7DEFB00F081
:102AF00011FA2046FFF798FB0028EED00020A8E747
:102B000004ED00E070B505460E462C46FFF738FD93
:102B1000D4E90F12206801FB020060600020A0636E
:102B20002068A060E06B401E226C216800FB021050
:102B3000E060FF2084F8440084F845009EB92069D5
:102B400008B9012000E00020A8B904F1100000F04D
:102B5000A1F980B14FF0805009490860BFF34F8F51
:102B6000BFF36F8F07E004F11000FFF7D3FC04F10F
:102B70002400FFF7CFFCFFF715FD012070BD00001A
:102B800004ED00E02DE9FF4383B0074688461D466B
:102B90004FF000093C4600BFFFF7F2FCA06BE16B71
:102BA000884201D3022D28D12A4641462046FFF70C
:102BB000EEF90646606A08B9012000E0002068B915
:102BC00004F1240000F066F988B14FF080503249DA
:102BD0000860BFF34F8FBFF36F8F08E03EB14FF037
:102BE00080502D490860BFF34F8FBFF36F8FFFF701
:102BF000D9FC012007B0BDE8F083059818B9FFF7AC
:102C0000D1FC0020F6E7B9F1000F04D101A8FFF7CD
:102C1000A3FD4FF00109FFF7C5FCFFF7DBFDFFF750
:102C2000AFFC94F94400401C10B9002084F8440023
:102C300094F94500401C10B9002084F84500FFF7C6
:102C4000B1FC05A901A800F029F8F0B92046FFF76A
:102C5000F8FAA0B104F110000599FFF76DFD2046C8
:102C6000FFF723FB00F056F9002895D14FF0805074
:102C700009490860BFF34F8FBFF36F8F8CE7204681
:102C8000FFF713FB00F046F986E72046FFF70DFB40
:102C900000F040F90020ADE704ED00E070B5044617
:102CA0000D46FFF76DFC124802682868401C08B901
:102CB000002619E00F4920680968884204D060683E
:102CC000904201D801260FE06068101A29688842F6
:102CD00009D228686168511A401A28602046FFF717
:102CE0003BFD002600E00126FFF75CFC304670BD8E
:102CF000180100202C0100202DE9FF4F85B08046EF
:102D000089461746DDE912ABB800FFF70DFB064612
:102D100056B14C20FFF708FB04460CB1266304E0D3
:102D20003046FFF74FFC00E000247CB10020CDE9E5
:102D300000ABCDE902403A4649464046089BFFF7C2
:102D4000CAF92046FFF782F8012501E04FF0FF3570
:102D5000284609B0BDE8F08F0549096809B9012086
:102D600005E00449096809B9022000E00020704725
:102D7000200100203C0100202DE9F04100273A48C5
:102D80000068002863D139480068451C3748056051
:102D90008DB93748D0F8008036480068344908605B
:102DA0003448C0F8008034480068401C324908604C
:102DB000FFF756FA00BF3148006885423BD300BF99
:102DC0002B480068006808B9012000E0002020B10D
:102DD0004FF0FF30294908602CE025480068C068A2
:102DE000C4686668B54202D22448066022E0201D0D
:102DF000FFF77CFBA06A18B104F11800FFF776FB1F
:102E000094F82C10012088401D49096808431C498A
:102E10000860E16A01EB81011A4A02EB8100211D81
:102E2000FFF7A2FB1849E06A0968C96A8842C7D35C
:102E30000127C5E700BF14480068C06A00EB8000A6
:102E4000104951F82000012800D9012704E00F485B
:102E50000068401C0D4908600D48006800B101275A
:102E60003846BDE8F08100003C0100201801002038
:102E7000080100200C0100202C010020340100205A
:102E80001C0100205C03002004010020240100201C
:102E90002801002070B50646F068C46804F11800E7
:102EA000FFF724FB15480068A8B9201DFFF71EFB9B
:102EB00094F82C10012088401149096808431049F2
:102EC0000860E16A01EB81010E4A02EB8100211DDD
:102ED000FFF74AFB04E004F118010B48FFF744FB3D
:102EE0000A49E06A0968C96A884204D901250120B3
:102EF0000749086000E00025284670BD3C0100201D
:102F00001C0100205C0300200406002004010020B6
:102F10002801002070B500240026FFF731FB2E4861
:102F20000068401E2C4908600846006800284FD100
:102F30002A48006800284BD024E02948C068C468AB
:102F400004F11800FFF7D2FA201DFFF7CFFA94F82A
:102F50002C10012088402349096808432149086052
:102F6000E16A01EB8101204A02EB8100211DFFF79C
:102F7000FBFA1E49E06A0968C96A884202D3012047
:102F80001B4908601648006808B9012000E00020CD
:102F90000028D2D00CB1FFF763F91648056865B177
:102FA00000BFFFF7E9FE10B10120114908606D1E56
:102FB000002DF6D100200F4908600D48006838B197
:102FC000012630070C490860BFF34F8FBFF36F8FA6
:102FD000FFF7E8FA304670BD3C01002014010020E4
:102FE000040600201C0100205C03002004010020D6
:102FF000280100202401002004ED00E04FF47F0CA4
:103000001CEAD0121EBF1CEAD11392EA0C0F93EAFD
:103010000C0F00F0858090EA010F48BF42F48072E7
:1030200040F4000C41F400002CF07F4120F07F4080
:1030300000B58142A2EB03020FF2081CACEB504E2C
:10304000C0F100009EF800E04FEA4E0E00FB0EFCBF
:1030500038BF49004FEA2C1C02F5FA020CFB0EF3B4
:103060004FEACE1E4FEA112C4FEAC1210EEB635EF0
:1030700042EB22420EFB0CFC4FEA1C5300FB0311F7
:103080004FEA112C4FEA01310EFB0CFC4FEADC4CED
:1030900000FB0C11C14228BF09184CEB03335DF84B
:1030A00004EB10EB410143EBC250B2F57C0F38BF8B
:1030B000704729D512F0F00F1CBF00F1C04000F09E
:1030C00000407047008182838485868788898B8C45
:1030D0008D8E8F919293959697999A9C9D9FA0A281
:1030E000A3A5A7A8AAACAEB0B2B3B5B7B9BCBEC0D1
:1030F000C2C5C7C9CCCED1D4D7D9DCDFE2E6E9EC72
:10310000F0F3F7FAFE0000004FEA400C0CF1807C6F
:10311000BCF17E4F28BF7047B0F1C04000F02BB922
:1031200090EA010F0CEAD11348BF42F48072624565
:1031300038BF634507D213F47F0F16D080EA010031
:1031400000F00040704710B500F0CFF8097EFC3E5B
:1031500000F005B880EA010000F00040704780EA06
:10316000010000F0004000F006B912F47F0F04BF28
:103170000248704780EA010000F0FDB80000C07FFF
:1031800041000B0ED3F19E0208D950F400034FEA20
:10319000032323FA02F048BF4042704710B500F005
:1031A000A4F800BF49922480002070476FF00042CD
:1031B00082EA20007047000010F0004148BF404202
:1031C000B0FA80F310FA03F2C3F19D030BD051EA79
:1031D000C35101EB1220530638BF704700F10100C4
:1031E00008BF20F0010070474FF47F0C1CEAD0129A
:1031F0001EBF1CEAD11392EA0C0F93EA0C0F00F0E9
:10320000478090EA010F48BF42F480724FF0004CB3
:103210004CEA00204CEA012102EB0302A0FB01135F
:10322000A2F50002002918BF43F001035B0028BF8C
:103230004FEA330342EB22425FEA132C4CEBC250BD
:103240002EBFBCEB436FB2F57C0F70474FEA036CA7
:10325000BCF1004F08BF20F00100B2F57C0F38BF71
:1032600070470BD582F0FF0212F5803FC8BF704750
:1032700000F1C040D8BF00F00040704700F5000CDE
:103280005FEA4C0C48BF7047B0F1C04000F073B823
:1032900090EA010F0CEAD11348BF42F480726245F4
:1032A00038BF634504D280EA010000F00040704757
:1032B00010B500F01AF800BF8900013E00F007B811
:1032C00000F009B85FEA410C5FEA1C6C08D080EAA4
:1032D000010000F050B85FEA400C5FEA1C6CF6D1C8
:1032E0004FF00040A0F5800070470EF1020E2EF066
:1032F000030E5EF8044B244204D44FEA4102B2F1BB
:103300007F4F11D84FEA4003B3F17F4F0CD80ED155
:103310004FEAD07CB2F17F4F0CEB4C0C0CF1020C5D
:1033200008BF4CEBD17C04E04FF0080C01E04FEA01
:10333000D17C0CEB4C0324FA03F404F00704B4F141
:10334000040C06D20EEB840CBDE810404CF0010CCE
:103350006047DFE80CF0070802024FF00040A0F5DC
:10336000800010BD0846420018BFD2F1807288BFAD
:1033700000F0004010BDFF2141EAD050C005704769
:1033800060090000C012000080250000004B000012
:103390000096000000E1000000C2010008090A0BCD
:1033A0000C0D0E0F00000000000000006400000083
:1033B000010100002A2A2A2A2A2A2A2A2A2A000067
:1033C0003200000032000000320000003200000035
:1033D0000000000064000000010100002A2A2A2ADF
:1033E0002A2A2A2A2A2A000032000000320000007D
:1033F0003200000032000000000000006400000005
:10340000010100002A2A2A2A2A2A2A2A2A2A000016
:1034100032000000320000003200000032000000E4
:103420000000000064000000010100002A2A2A2A8E
:103430002A2A2A2A2A2A000032000000320000002C
:1034400032000000320000000000000064000000B4
:10345000010100002A2A2A2A2A2A2A2A2A2A0000C6
:103460003200000032000000320000003200000094
:103470000000000064000000010100002A2A2A2A3E
:103480002A2A2A2A2A2A0000F40100003200000019
:103490003200000032000000000000006400000064
:1034A000010100002A2A2A2A2A2A2A2A2A2A000076
:1034B000F401000032000000320000003200000081
:1034C0000000000064000000010100002A2A2A2AEE
:1034D0002A2A2A2A2A2A000032000000320000008C
:1034E0003200000032000000000000006400000014
:1034F000010100002A2A2A2A2A2A2A2A2A2A000026
:1035000032000000320000003200000032000000F3
:103510000000000064000000010100002A2A2A2A9D
:103520002A2A2A2A2A2A000032000000320000003B
:1035300032000000320000000000000064000000C3
:10354000010100002A2A2A2A2A2A2A2A2A2A0000D5
:1035500032000000320000003200000032000000A3
:103560000000000064000000010100002A2A2A2A4D
:103570002A2A2A2A2A2A00003200000032000000EB
:103580003200000032000000000000006400000073
:10359000010100002A2A2A2A2A2A2A2A2A2A000085
:1035A0003200000032000000320000003200000053
:1035B0000000000064000000010100002A2A2A2AFD
:1035C0002A2A2A2A2A2A000032000000320000009B
:1035D0003200000032000000000000006400000023
:1035E000010100002A2A2A2A2A2A2A2A2A2A000035
:1035F0003200000032000000320000003200000003
:103600000000000064000000010100002A2A2A2AAC
:103610002A2A2A2A2A2A000032000000320000004A
:1036200032000000320000000000000064000000D2
:10363000010100002A2A2A2A2A2A2A2A2A2A0000E4
:1036400032000000320000003200000032000000B2
:103650000000000064000000010100002A2A2A2A5C
:103660002A2A2A2A2A2A00003200000032000000FA
:103670003200000032000000000000006400000082
:10368000010100002A2A2A2A2A2A2A2A2A2A000094
:103690003200000032000000320000003200000062
:1036A0000000000064000000010100002A2A2A2A0C
:1036B0002A2A2A2A2A2A00003200000032000000AA
:1036C0003200000032000000000000006400000032
:1036D000010100002A2A2A2A2A2A2A2A2A2A000044
:1036E0003200000032000000320000003200000012
:1036F0000000000064000000010100002A2A2A2ABC
:103700002A2A2A2A2A2A0000320000003200000059
:1037100032000000320000000000000064000000E1
:10372000010100002A2A2A2A2A2A2A2A2A2A0000F3
:1037300032000000320000003200000032000000C1
:103740000000000064000000010100002A2A2A2A6B
:103750002A2A2A2A2A2A0000320000003200000009
:103760003200000032000000000000006400000091
:10377000010100002A2A2A2A2A2A2A2A2A2A0000A3
:103780003200000032000000320000003200000071
:103790000000000064000000010100002A2A2A2A1B
:1037A0002A2A2A2A2A2A00003200000032000000B9
:1037B0003200000032000000000000006400000041
:1037C000010100002A2A2A2A2A2A2A2A2A2A000053
:1037D0003200000032000000320000003200000021
:1037E0000000000064000000010100002A2A2A2ACB
:1037F0002A2A2A2A2A2A0000320000003200000069
:1038000032000000320000000000000064000000F0
:10381000010100002A2A2A2A2A2A2A2A2A2A000002
:1038200032000000320000003200000032000000D0
:103830000000000064000000010100002A2A2A2A7A
:103840002A2A2A2A2A2A0000320000003200000018
:1038500032000000320000000000000064000000A0
:10386000010100002A2A2A2A2A2A2A2A2A2A0000B2
:103870003200000032000000320000003200000080
:103880000000000064000000010100002A2A2A2A2A
:103890002A2A2A2A2A2A00003200000032000000C8
:1038A0003200000032000000000000006400000050
:1038B000010100002A2A2A2A2A2A2A2A2A2A000062
:1038C0003200000032000000320000003200000030
:1038D0000000000064000000010100002A2A2A2ADA
:1038E0002A2A2A2A2A2A0000320000003200000078
:1038F0003200000032000000000000006400000000
:10390000010100002A2A2A2A2A2A2A2A2A2A000011
:1039100032000000320000003200000032000000DF
:103920000000000064000000010100002A2A2A2A89
:103930002A2A2A2A2A2A0000320000003200000027
:1039400032000000320000000000000064000000AF
:10395000010100002A2A2A2A2A2A2A2A2A2A0000C1
:10396000320000003200000032000000320000008F
:103970000000000064000000010100002A2A2A2A39
:103980002A2A2A2A2A2A00003200000032000000D7
:10399000320000003200000000000000640000005F
:1039A000010100002A2A2A2A2A2A2A2A2A2A000071
:1039B000320000003200000032000000320000003F
:1039C0000000000064000000010100002A2A2A2AE9
:1039D0002A2A2A2A2A2A0000320000003200000087
:1039E000320000003200000000000000640000000F
:1039F000010100002A2A2A2A2A2A2A2A2A2A000021
:103A000032000000320000003200000032000000EE
:103A10000000000064000000010100002A2A2A2A98
:103A20002A2A2A2A2A2A0000320000003200000036
:103A300032000000320000000000000064000000BE
:103A4000010100002A2A2A2A2A2A2A2A2A2A0000D0
:103A5000320000003200000032000000320000009E
:103A60000000000064000000010100002A2A2A2A48
:103A70002A2A2A2A2A2A00003200000032000000E6
:103A8000320000003200000000000000640000006E
:103A9000010100002A2A2A2A2A2A2A2A2A2A000080
:103AA0002C23000032000000320000003200000031
:103AB0000000000064000000010100002A2A2A2AF8
:103AC0002A2A2A2A2A2A0000320000003200000096
:103AD000320000003200000000000000640000001E
:103AE000010100002A2A2A2A2A2A2A2A2A2A000030
:103AF00032000000320000003200000032000000FE
:103B00000000000064000000010100002A2A2A2AA7
:103B10002A2A2A2A2A2A0000320000003200000045
:103B200032000000320000000000000064000000CD
:103B3000010100002A2A2A2A2A2A2A2A2A2A0000DF
:103B400032000000320000003200000032000000AD
:103B50000000000064000000010100002A2A2A2A57
:103B60002A2A2A2A2A2A00003200000032000000F5
:103B70003200000032000000010000000A000000D6
:103B800064000000E803000010270000A086010088
:103B900040420F008096980000E1F50500CA9A3B6C
:103BA000C03B0008000000205C0100006C01000820
:103BB000183C00085C010020444B0000C8010008CC
:103BC000011D8451250200091C0102030406070897
:103BD000091011EB60C7E56CADAFE0EFEDEE2F8B98
:103BE000678F8EB3040B1011BE067C5EC6DAFA0E28
:103BF000FEDEEEF2B876F8E80B1A40B03C011B523C
:103C000001120219401B20B604013212140A33C4F7
:083C100038012A1AAA01000084
:04000005080002A548
:00000001FF
