:020000040800F2
:10000000704D0020A5020008ED120008F70F00084F
:10001000E9120008D505000855210008000000007D
:100020000000000000000000000000000D020008B9
:10003000530A00080000000051020008B11C00082B
:10004000BF020008BF020008BF020008BF0200088C
:10005000BF020008BF020008BF020008BF0200087C
:10006000BF020008BF020008BF020008BF0200086C
:10007000BF020008BF020008890600089F060008AA
:10008000BF020008BF020008BF020008BF0200084C
:10009000BF020008BF020008BF020008BF0200083C
:1000A000BF020008BF020008BF020008BF0200082C
:1000B000BF020008BF020008BF020008BF0200081C
:1000C000BF020008BF020008BF020008BF0200080C
:1000D000BF020008211E0008BF020008BF0200087E
:1000E000BF020008BF020008BF020008BF020008EC
:1000F000BF020008BF020008BF020008BF020008DC
:10010000BF020008BF020008BF020008BF020008CB
:10011000BF020008BF020008BF020008BF020008BB
:10012000BF020008BF020008BF020008BF020008AB
:1001300000F002F800F05AF80AA090E8000C82449F
:100140008344AAF10107DA4501D100F04FF8AFF27C
:10015000090EBAE80F0013F0010F18BFFB1A43F0A5
:1001600001031847C8410000E84100000A444FF06D
:10017000000C10F8013B13F0070408BF10F8014B06
:100180001D1108BF10F8015B641E05D010F8016B4B
:10019000641E01F8016BF9D113F0080F1EBF10F8AF
:1001A000014BAD1C0C1B09D16D1E58BF01F801CBD2
:1001B000FAD505E014F8016B01F8016B6D1EF9D555
:1001C0009142D6D37047000000230024002500266A
:1001D000103A28BF78C1FBD8520728BF30C148BFAA
:1001E0000B6070471FB51FBD10B510BD00F0F4F8CF
:1001F0001146FFF7F7FF02F04BF900F012F903B4D4
:10020000FFF7F2FF03BC00F019F90000224B196858
:100210000868B0E8F00F80F30988BFF36F8F4FF0E4
:10022000000080F311884EF00D0E704700000000B2
:1002300006480068006880F3088862B661B6BFF3BC
:100240004F8FBFF36F8F00DF00BF00BF08ED00E0EE
:10025000EFF30980BFF36F8F0F4B1A6820E9F00F9F
:10026000106008B54FF0500080F31188BFF34F8F36
:10027000BFF36F8F02F082FE4FF0000080F3118811
:10028000BDE8084019680868B0E8F00F80F30988F5
:10029000BFF36F8F704700BF34010020EFF305807C
:1002A000704700000948804709480047FEE7FEE71D
:1002B000FEE7FEE7FEE7FEE7FEE7FEE7FEE7FEE716
:1002C00004480549054A064B70470000D11C000848
:1002D0003101000870470020704D00207049002057
:1002E00070490020032A40F2308010F0030C00F027
:1002F000158011F8013BBCF1020F624498BF11F860
:1003000001CB00F8013B38BF11F8013BA2F1040218
:1003100098BF00F801CB38BF00F8013B11F0030390
:1003200000F02580083AC0F0088051F8043B083AF4
:1003300051F804CBA0E80810F5E7121D5CBF51F896
:10034000043B40F8043BAFF30080D20724BF11F810
:10035000013B11F801CB48BF11F8012B24BF00F875
:10036000013B00F801CB48BF00F8012B704710B5E6
:10037000203AC0F00B80B1E81850203AA0E818509D
:10038000B1E81850A0E81850BFF4F5AF5FEA027C5E
:1003900024BFB1E81850A0E8185044BF18C918C0CD
:1003A000BDE810405FEA827C24BF51F8043B40F86E
:1003B000043B08BF7047D20728BF31F8023B48BF53
:1003C00011F8012B28BF20F8023B48BF00F8012B91
:1003D0007047704770477047754600F02BF8AE467F
:1003E00005006946534620F00700854618B020B541
:1003F000FFF766FFBDE820404FF000064FF0000712
:100400004FF000084FF0000B21F00701AC46ACE8BC
:10041000C009ACE8C009ACE8C009ACE8C0098D4629
:10042000704710B50446AFF300802046BDE8104089
:10043000FFF7E5BE0048704710470020014918202B
:10044000ABBEFEE726000200704700001CB5012489
:1004500002F062FC03220021012002F065FE1C492B
:1004600008601C48052100232202CDE900101AA1D2
:100470001D4803F00DF804461C480A2100234FF4E0
:100480008072CDE900101AA11D4803F001F804465E
:100490001C48042100238A01CDE900101AA11E483E
:1004A00002F0F6FF04461D48092100234FF4807234
:1004B000CDE900101AA11E4802F0EAFF044600BF71
:1004C0001C48006802F098FC02F038FC1CBD0000DB
:1004D000140000200400002052756E506167655FB3
:1004E0005461736B00000000E1190008080000204F
:1004F0004465616C446174615F5461736B0000001A
:10050000450A00080C0000204B65794465616C5F6A
:100510005461736B000000000512000810000020F9
:10052000436F6D4465616C5F5461736B0000000044
:1005300055060008000000200149086070470000CF
:1005400088860D42014908607047000000860D4210
:1005500010B58AB000241C221A4903A8FFF707FF30
:10056000002001900290092001F060FB242001F09E
:10057000EBFE00F043FD01F02BFC072212490A209C
:1005800001F0FEFD3221114802F014FB04464FF445
:10059000407000F0E5FE0E48006800F0FDF90C48E0
:1005A000006800F0B5F99DF8060000909DF8053050
:1005B0009DF804202420069901F074FC00F040FE10
:1005C0000AB010BD183B00081C0300208C0100205D
:1005D0001401002000BFFEE7FCB504460D464FF6AF
:1005E000FF70019048F2050700200090002626E0E9
:1005F00014F8010B00906946684600F0E6FDBDF86E
:1006000004009DF8001080EA01200190002614E00B
:10061000BDF8040000F4004030B1BDF8040087EAE2
:10062000400080B2019006E0BDF804004FF6FF7173
:1006300001EA40000190701CC6B2082EE8DB281EBB
:10064000A5F10105D4D101A901A800F0A1FDBDF8D3
:100650000400FCBD11E000235A1E1946074800683B
:1006600002F07EFD0648006801F038FF08210548C9
:1006700000F041F9012002F0A5FBECE71400002096
:10068000140100204400024010B54FF4005000F067
:10069000E3F818B14FF4805000F01AF810BD10B50F
:1006A0004FF4003000F0D8F8012802D1400400F0E7
:1006B00001F810BD00F0805111B10349086001E05C
:1006C00002494860704700000404024000000240F4
:1006D00000F0805111B10349086001E0024948600F
:1006E00070470000040402400000024021B102688B
:1006F00042F00102026004E002684FF6FE731A4005
:100700000260704701684FF6FE72114001600021DF
:10071000016041608160C1604B49884208D14A490B
:100720000839496841F00F01474A083A51608AE0A8
:1007300045491431884208D143490839496841F094
:10074000F001414A083A51607DE03F492831884232
:1007500008D13D490839496841F470613A4A083A7C
:10076000516070E038493C31884208D13649083937
:10077000496841F47041344A083A516063E03249B3
:100780005031884208D130490839496841F4702114
:100790002D4A083A516056E02B496431884208D10D
:1007A00029490839496841F47001274A083A5160DB
:1007B00049E025497831884208D1234908394968F8
:1007C00041F07061204A083A51603CE01F4988427C
:1007D00006D1011F096841F00F01021F116032E0CC
:1007E0001A491431884208D11849091F096841F093
:1007F000F001164A121F116025E014492831884281
:1008000008D11249091F096841F470610F4A121F8B
:10081000116018E00D493C31884208D10B49091F8D
:10082000096841F47041094A121F11600BE0074941
:100830005031884207D10549091F096841F47021E8
:10084000024A121F1160704708000240080402406B
:100850000146486880B2704701460020002201F03E
:10086000805313B1054B1A6801E0054B1A6802EA80
:1008700001030BB1012000E000207047000402409A
:10088000000002401AB103680B43036002E00368F2
:100890008B430360704710B50022026847F6F0737F
:1008A0009A430C6A8B6823430C6923434C692343A6
:1008B0008C692343CC6923434C6A23438C6A2343CA
:1008C0001A430260CB6843600B6883604B68C36067
:1008D00010BD70B504460D4600212046FFF706FF07
:1008E0002946204600F005F801212046FFF7FEFECC
:1008F00070BD4160704770B504460D46002120462A
:10090000FFF7F4FE656001212046FFF7EFFE70BDA2
:1009100010B58CB004460121084600F0E1FE1C48E9
:10092000FFF7F0FE1B480090019400200290202069
:1009300003900020049080200590002006900790EE
:1009400008904FF44050099000200A9069461048E2
:10095000FFF7A1FF012202210D48FFF793FF0121BC
:100960000B48FFF7C3FE4FF4407000F0F9FC0F2076
:100970008DF82C0001208DF82D0000208DF82E0020
:1009800001208DF82F000BA800F0B2FC0CB010BDB8
:10099000580002400438014038B5044626484069F2
:1009A00040F0010024494861052001F0E5FC23489E
:1009B0002349C864084604650020886448640846E2
:1009C000406C40F0100048640846406C486408469B
:1009D000406C48640846406C40F08000486408461B
:1009E000406C48640846406C48640846406C40F4DB
:1009F000805048640846406C486401220221104837
:100A00004430FFF73FFF01210D484430FFF76EFEF1
:100A10004FF4407000F0A4FC0E208DF8000002207E
:100A20008DF8010000208DF8020001208DF80300F0
:100A3000684600F05DFC38BD0010024004380140FB
:100A40000000024004E000F0EFFE092002F0BAF9D5
:100A5000F9E77047002106E00A2100BF0A1EA1F154
:100A6000010399B2FAD1021EA0F1010398B2F3D1A9
:100A70007047000030B504460D4620785B4A811867
:100A80000122122001F07CFB6078584A8118012273
:100A9000142001F075FBA078544A115C162001F077
:100AA000A9FBA078514A105C0111112001F0A2FBB2
:100AB000E0784F4A811801220F2001F061FB207974
:100AC0004B4A811801220D2001F05AFB6079484AF7
:100AD000811801220B2001F053FB4648D0F8A000FA
:100AE000022800D10325052D7ED0012D08DC605D94
:100AF0003E49085C40F01000615D3C4A505414E0EF
:100B0000022D08D1605D3949085C40F01000615D3C
:100B1000364A505409E0022D07DD605D3449085C17
:100B200040F00100615D324A50543248D0F8A000D4
:100B300020B13048D0F8A000022855D1052D32D27E
:100B4000DFE805F0030B132129002078274A8118DC
:100B50000122122001F014FB25E06078234A81185D
:100B60000122142001F00CFB1DE0A0781F4A115C4B
:100B7000162001F03FFBA0781C4A105C01111120E7
:100B800001F038FB0FE0E078194A811801220F20AC
:100B900001F0F6FA07E02079154A811801220D20AC
:100BA00001F0EEFA00BF00BF012D08DC605D0F49C7
:100BB000085C00F0EF00615D0C4A505414E0022D17
:100BC00008D1605D0949085C00F0EF00615D074AEB
:100BD000505409E0022D07DD605D0549085C00F016
:100BE000FE00615D024A505430BD00004400002008
:100BF00062000020540200202DE9FF4105460E4608
:100C0000002002900390804600273648854200DD90
:100C100005463548854200DA0546002D03DB0020F5
:100C20008DF8050003E06D4201208DF805000524D4
:100C300025E03DB10A2095FBF0F100FB115002A91F
:100C4000085518E0B8F1000F01D104F0FF089DF835
:100C5000050038B9C4F10500B0420CD9102002A932
:100C6000085508E0C4F10500B04204D9102002A9DB
:100C7000085507B9E7B20A2095FBF0F5641E002C71
:100C8000D7DA9DF8050090B1C7F10500B04203D94D
:100C9000112002A9C8550AE0B8F1000F04D01121B3
:100CA000781E02AA115402E0112002A9C85500249E
:100CB00006E0C6F10500A04201D106B102E0641CC5
:100CC000052CF6DB00BF142E05D31021A6F114006D
:100CD00002AA11540524E1B202A8FFF7CBFEBDE839
:100CE000FF8100003F420F006179FEFF0149C860AB
:100CF000704700000020024030B5044604254FF440
:100D0000302000F085F80546042D17D10C48006905
:100D100040F002000A49086108464461006940F059
:100D2000400008614FF4302000F072F80546044896
:100D3000006941F6FD71084001490861284630BD4F
:100D40000020024004200B49C96801F0010109B1EB
:100D500001200EE00749C96801F0040109B1022031
:100D600007E00449C96801F0100109B1032000E05F
:100D700004207047002002400348006940F08000D2
:100D800001490861704700000020024078B506461E
:100D90000C46042500200090E80200F039F80546D2
:100DA000042D24D11348006940F001001149086165
:100DB0003480E80200F02CF80546042D10D1B01C58
:100DC0000090200C00990880E80200F021F8054608
:100DD0000848006941F6FE7108400649086106E0CE
:100DE0000448006941F6FE7108400249086128463E
:100DF00078BD0000002002400248034948600348D3
:100E0000486070472301674500200240AB89EFCD61
:100E100000B502460423FFF795FF034603E0FFF702
:100E200091FF0346521E012B01D1002AF7D102B9CE
:100E30000523184600BD2DE9F04102460025002695
:100E4000002000230024002791F803C00CF00F05B8
:100E500091F803C00CF0100CBCF1000F03D091F816
:100E600002C04CEA050591F800C0BCF1000F31D07A
:100E7000146800202BE04FF0010C0CFA00F3B1F8DD
:100E800000C00CEA03069E4220D183004FF00F0CF5
:100E90000CFA03F7BC4305FA03FC4CEA040491F88E
:100EA00003C0BCF1280F06D14FF0010C0CFA00FC76
:100EB000C2F814C00AE091F803C0BCF1480F05D194
:100EC0004FF0010C0CFA00FCC2F810C0401C0828BE
:100ED000D1D31460B1F800C0BCF1FF0F34DD546809
:100EE00000202EE000F1080C4FF0010808FA0CF386
:100EF000B1F800C00CEA03069E4221D183004FF0F6
:100F00000F0C0CFA03F7BC4305FA03FC4CEA04048B
:100F100091F803C0BCF1280F05D100F1080C08FAC4
:100F20000CF8C2F8148091F803C0BCF1480F07D147
:100F300000F1080C4FF0010808FA0CF8C2F8108014
:100F4000401C0828CED35460BDE8F081F0B50A46B5
:100F5000002300240021002500F00046B6F1004FD8
:100F600002D11D4EF16901E01B4E7168C0F30345CB
:100F700083B200F44016B6F5401F08D121F070612D
:100F8000154E766826F07066134F7E6012E000F40E
:100F90008016B6F5801F06D1032606FA05F4A14394
:100FA00041F0706106E0460D360103FA06F6B143E2
:100FB00041F0706122B1460D360103FA06F6314365
:100FC00000F00046B6F1004F02D1034EF16101E09E
:100FD000014E7160F0BD000000000140024600209B
:100FE00093680B400BB1012000E000207047416185
:100FF00070470161704700BFFEE7000070B5002632
:101000000C2601F063F901F083F9604800684DF6A1
:10101000FF7108405D490860FA2001F0ADF9FA203F
:1010200001F0AAF9594800684DF6FF710840574988
:10103000086000BF4FF4805154480C38FFF7CEFFD2
:101040000028F7D0002414E05048006840F4005015
:101050004E4908601420FFF7FDFC4C4800684DF62F
:10106000FF710840494908601420FFF7F3FC601C39
:10107000C4B21D2CE8DBCA2501F058F9002427E092
:101080004248006840F40050404908601420FFF7CF
:10109000E1FC05F0800030B13C48006840F480502D
:1010A0003A49086006E0394800684EF6FF7108408A
:1010B000364908606806050E344800684DF6FF7131
:1010C0000840324908601420FFF7C4FC601CC4B219
:1010D000072CD5DB2D48006840F400502B490860F0
:1010E0001420FFF7B7FC294800684DF6FF7108404F
:1010F000264908601420FFF7ADFC3546002427E0A0
:101100002248006840F40050204908601420FFF78E
:10111000A1FC05F0800030B11C48006840F480500C
:101120001A49086006E0194800684EF6FF71084049
:10113000164908606806050E144800684DF6FF71F0
:101140000840124908601420FFF784FC601CC4B2F8
:10115000082CD5DB0D48006840F480500B4908602E
:101160000846006840F4005008601420FFF772FC45
:10117000064800684DF6FF710840044908601420D5
:10118000FFF768FC01F0C4F870BD00000C0C0140D2
:101190003CB502460023ADF8003000200FE00B887C
:1011A0000124844023404BB1BDF80030C0F10F054D
:1011B0000124AC4023439BB2ADF80030401C102802
:1011C000EDDBBDF8003013803CBD38B5024600238E
:1011D0008DF8003000200FE00B780124844023407C
:1011E0004BB19DF80030C0F107050124AC4023430A
:1011F000DBB28DF80030401C0828EDDB9DF8003094
:10120000137038BD12E00A48006801F0F1F809488F
:10121000006801F0EDF8084800680849884202D3E8
:10122000002005490860092001F0CCFDEBE7000033
:10123000D8000020DC0000201801002000CA9A3BE2
:1012400008B50121082000F05BFA4FF40470ADF8F6
:10125000000048208DF8030003208DF80200694645
:101260000148FFF7E8FD08BD000C014000B5002073
:1012700015490861C8601420486100208861C86170
:101280000846006840F001000860084640680F49C1
:1012900008400D494860084600680D4908400A4961
:1012A00008600846006820F480200860084640680E
:1012B00020F4FE0048600020886000214FF00060AC
:1012C00000F008F800BD0000001002400000FFF828
:1012D000FFFFF6FE024A0A400243024B1A607047C3
:1012E00080FFFF1F08ED00E000BFFEE77047000031
:1012F00070B5002100230F22C47804B3154C246874
:1013000004F4E064C4F5E064210AC1F10403CA40B6
:10131000447804FA03F184781440214309010E4C07
:101320000678A155047804F01F050124AC40057827
:101330006D11AD0005F1E025C5F8004109E0047824
:1013400004F01F050124AC40044D0678761145F8E1
:10135000264070BD0CED00E000E400E080E100E01C
:1013600002490143024A1160704700000000FA057B
:101370000CED00E02DE9F05F07460E469046C948A7
:10138000006D10B1012838D11AE0C7484FF49671AA
:101390000268C648006800F0DFFE80B1C2480068FD
:1013A000C3490860C0480068C0490860BD48006D76
:1013B000401CBC490865486D0521FFF71DFC20E075
:1013C000B9484FF496710268B948006800F0C4FE4D
:1013D00090B1B5480068B5490860B3480068B449A1
:1013E0000860B44A126802F11401AE4A506DFFF76A
:1013F00003FC0020AB49086503E00020A94908650B
:1014000000BF00BFA748806D20B101281CD0022872
:1014100019D14AE0002508E0A74850F82500B0425D
:1014200002D8681CC5B200E001E00A2DF4DB00BF61
:10143000A248057005209F4908600020A049087057
:101440000120984988652AE145469A480068C0F11C
:101450000500994951F820409A4804609148406D30
:1014600000280FDB8F48406D04EB84014900B0FB7E
:10147000F1F201FB120093490968B0FBF1F09049C9
:1014800008700CE08748406D4042B0FBF4F104FB6B
:1014900011008C490968B0FBF1F089490870814856
:1014A000806D401C7F498865F9E0874800680078B6
:1014B00004286ED17B48406D00280ADB7948406DD6
:1014C0007F4909787F4A126801FB12007549486517
:1014D00009E07448406D7A4909787A4A126801FB3C
:1014E00002007049486576480078401C74490870CD
:1014F0007048006840BB7148007828B308460078FF
:101500007049096800FB01F46648406D002808DA5C
:101510006448406D4042634948650020684908704E
:101520000024B4421FD9002F04DB002400206449AA
:10153000087018E000245B48406D404259494865F6
:1015400000205F4908700EE05D4800780A2190FB9A
:10155000F1F201FB12005A49087008460078594917
:10156000096800FB01F44F48406D002805DB4D4839
:10157000406D20444B49486504E04A48406D001BDB
:101580004849486502204749886500204E49096856
:1015900008704D4800680078052803D100204A49AA
:1015A0000968087049480068007804281FD141483C
:1015B0000068401E3F49086040480078C0F10500BF
:1015C0000968884202DB05203A4908600120354954
:1015D000886538480068002802DA05203549086027
:1015E000012030498865002038490968087037486B
:1015F00000680078032848D1002034490968087041
:101600002849086802F0A4F982462649486D02F08C
:101610009FF98346514602F0BDF881462C48406947
:101620002049C1F8C400D1F8C40002F091F9834602
:10163000494602F0A5F9824602F06EF91949C1F84F
:10164000C4000846D0F8C400642810DB204948696B
:1016500002F07EF98346494602F092F9824602F092
:101660005BF91B4948613221194801F0CDFC00208B
:101670000C49C1F8A0000F490860104908701049D2
:1016800008701049086007498865104800680078AC
:10169000052803D100200D490968087000BF00BF6C
:1016A000BDE8F09F54020020180100203C000020FB
:1016B00040000020300000200443000834000020D7
:1016C0003500002038000020DC000020D800002079
:1016D0008C010020014908627047000000000E42A2
:1016E00029B1064A52690243044B5A6104E0034A95
:1016F00052698243014B5A6170470000001002405A
:1017000029B1064A92690243044B9A6104E0034AF4
:1017100092698243014B9A617047000000100240B9
:1017200030B500210022002400232D4D6D6805F006
:101730000C0121B1042905D0082923D105E0294D48
:10174000056022E0274D05601FE0254D6D6805F41A
:101750007012234D6D6805F48034022505EB92422A
:101760001CB9214D554305600BE01D4D6D6805F416
:1017700000351DB11C4D5543056002E0194D554320
:10178000056002E0174D056000BF00BF144D6D6895
:1017900005F0F0010909154D6B5C0568DD404560F9
:1017A0000F4D6D6805F4E061090A104D6B5C4568EA
:1017B000DD4085600A4D6D6805F46051C90A0B4D26
:1017C0006B5C4568DD40C560054D6D6805F44041C2
:1017D000890B074D6B5CC568B5FBF3F5056130BD42
:1017E0000010024000127A0000093D002001002094
:1017F0003001002000210B4A11700A4A203A82F879
:101800002010012802D0042808D103E00121054A54
:10181000117004E00521034A117000E000BF00BF11
:1018200070470000201002402DE9F05F00240026E0
:101830004FF480516248FFF7D1FB00287CD100BFF4
:1018400021E064005E480C30006840F400505C49C0
:101850000C310860142000F0B4FD59480C300068C9
:101860004DF6FF71084056490C310860142000F015
:10187000A8FD4FF480515248FFF7B0FB08B144F087
:101880000104701CC6B2182EDBDB4D480C3000681A
:1018900040F400504A490C310860142000F091FDDA
:1018A00047480C3000684DF6FF71084044490C3140
:1018B0000860142000F085FD41480C30006840F4B9
:1018C00000503F490C310860142000F07AFD3C487C
:1018D0000C3000684DF6FF71084039490C31086042
:1018E000142000F06EFD36480C30006840F40050C3
:1018F00033490C310860142000F063FD30480C308F
:1019000000684DF6FF7108402D490C310860142025
:1019100000F057FD241104F40020B0F5002F01D190
:101920002848044328482949096840F821400027ED
:101930002648056800260AE040E0234850F82500C4
:1019400007446D1E002D00DC0525701CC6B2052E57
:10195000F3DB052097FBF0F01D4908601B48006889
:10196000401C1A49086008460068052801DB002071
:1019700008601848806916490968081A14490860FF
:1019800014484069002803DC4FF4FA70114948619B
:101990001049486901F0DCFF82460D48006801F0FB
:1019A000D7FF8346514601F0EBFF81460A4901F01B
:1019B000F1FE804601F0B0FF08490860BDE8F09FE5
:1019C000000C01400000F0FF3C030020A0000020BC
:1019D000A40000208C010020005043475402002046
:1019E0001CB54DA103C9CDE9000194E04C48D0F8E5
:1019F000A00020B1012870D002286CD181E04849B4
:101A000008680221FFF7F8F84648006800780328C4
:101A100013D145480068007878B944488069444942
:101A2000096808444149886100203E4909680870F6
:101A300032213E4801F0E8FA08E03A4800680078B0
:101A4000042803DB0020374909680870364800681D
:101A5000007803281ED1334800680078D0B90120EF
:101A60002F49C1F8A000334804680C208DF803000A
:101A70000A208DF8040012208DF805000846006841
:101A8000486505216846FEF7F5FF002026490968EC
:101A9000087008E0244800680078042803DB002070
:101AA000214909680870204800680078032812D18D
:101AB0001C480068007803280DD11F48006880F09A
:101AC00001001E49C1F8BC010020174909680870CF
:101AD0001449096808701AE0FFE7164840F2DC5123
:101AE0000268204600F038FB50B102200C49C1F8D2
:101AF000A00000200B49096808700B4909680870AC
:101B000005E005220E490F48FFF734FC00BF00BF77
:101B1000462001F057F969E710101010101000006E
:101B200054020020DC000020D80000208C0100209E
:101B3000A400002018010020BC8121420080214225
:101B40003F420F006179FEFF10B500F001F810BDB3
:101B50000CB50020019000903248006840F48030BD
:101B60003049086000BF2F48006800F40030009042
:101B70000198401C0190009818B90198B0F5A06F29
:101B8000F1D12848006800F4003010B10120009025
:101B900001E0002000900098012841D1224800680F
:101BA00040F01000204908600846006820F003005B
:101BB00008600846006840F0010008601948406865
:101BC00018494860084640684860084640684860D0
:101BD0000846406820F47C1048600846406840F49D
:101BE000F81048600846006840F08070086000BF48
:101BF0000C48006800F000700028F9D009484068DF
:101C000020F00300074948600846406840F00200A1
:101C1000486000BF0348406800F00C000828F9D174
:101C20000CBD0000001002400020024070B50446C8
:101C30000025FFF71BFB1C48006840F001001A4913
:101C4000086000BF1848006840080028FAD000204B
:101C500015494860A01EC4B20846406840EA844066
:101C600048601248006840F03200104908600E4891
:101C7000006840F080700C49086000BF0A480068A6
:101C8000400E0028FAD00848406840F0020006499B
:101C9000486005E004484068C0F3870505F0030587
:101CA000022DF7D170BD000000100240002002405C
:101CB00010B506480068401C0449086001F018FC93
:101CC000012801D001F016FA10BD00001801002013
:101CD00010B51348006840F001001149086008463B
:101CE0004068104908400E494860084600680E499F
:101CF00008400B4908600846006820F4802008600E
:101D00000846406820F4FE0048604FF41F008860D9
:101D1000FFF71AFF4FF000600449086010BD000093
:101D2000001002400000FFF8FFFFF6FE08ED00E0A3
:101D300008B501213920FFF7E3FC01212048FFF716
:101D400005F90120FFF7C6FC0020FFF753FD002036
:101D5000FEF7F8FB4FF44040ADF8000010208DF87E
:101D6000030003208DF8020069461648FFF763F868
:101D700048F20800ADF8000069461348FFF75BF829
:101D80004FF400411048FFF732F908210E48FFF7E1
:101D90002EF908210C48FFF72CF90121C803FFF7A1
:101DA000D5F80120ADF8000069460848FFF743F870
:101DB0000020FFF78FFC0020FEF7BEFB08BD0000EF
:101DC0000002300000100140000C014000140140EE
:101DD00010B5FFF7ADFF01200E4908600E49C1F8AC
:101DE000BC010E49086000BF012000F0DDFA52205E
:101DF00000F0E8F9302000F0E5F9002000F0E2F909
:101E00000A2000F0DFF9022000F0DCF9062000F0E3
:101E1000D9F910BD8081224200002242B80122423D
:101E200010B540F224411B4800F0D9F860B31948BE
:101E300000881949096881F832001648001D008899
:101E40001549096881F8320000211448FEF74EFC5C
:101E50004FF40030FEF73CFC4FF40020FEF738FC56
:101E60000E48FEF7F5FCC0F120000B49096881F827
:101E7000320001210948FEF739FC00231A461946B1
:101E80000748006801F04AFA20210448FEF721FDC6
:101E900000BF10BD0038014014010020580002406E
:101EA000140000202DE9F04186B080460C4615460E
:101EB0001E460C9F012144F20500FFF721FC4FF460
:101EC0000070ADF8140003208DF8160018208DF86E
:101ED000170005A93448FEF7AEFF4FF48060ADF857
:101EE000140004208DF8170005A92F48FEF7A3FF62
:101EF0004FF48070ADF8140010208DF81700032007
:101F00008DF8160005A92848FEF795FF4FF480715B
:101F10002548FFF76EF84FF44070FFF721FA2520AF
:101F20008DF8000000208DF801008DF802000120DE
:101F30008DF803006846FFF7DBF90194ADF808500F
:101F4000ADF80A60ADF80C700020ADF810000C2060
:101F5000ADF80E0001A9154800F090F8002240F2FB
:101F60002661124800F065F8002240F225510F4822
:101F700000F05FF8012240F224410C4800F059F8CB
:101F800001224021094800F021F801228021074860
:101F900000F01CF80121054800F00CF8002004496D
:101FA000086006B0BDE8F08100080140003801403B
:101FB000A001214221B1828942F40052828104E0D1
:101FC00082894DF6FF731A40828170471AB1838A65
:101FD0000B43838202E0838A8B438382704770B510
:101FE0000246002400230025002040F66A16B14274
:101FF00000D100BFC1F3421501F01F03012606FA0C
:1020000003F3012D02D19689334006E0022D02D15F
:10201000168A334001E0968A33400C12012606FAF4
:1020200004F41688344013B10CB1012000E0002004
:1020300070BDF0B50346002400260025002040F6C0
:102040006A17B94200D100BF1846C1F3421401F02B
:102050001F06012707FA06F5012C01D10C3004E018
:10206000022C01D1103000E014301AB107682F4360
:10207000076002E00768AF430760F0BD2DE9F04755
:1020800086B005460E460024A24600BFA1460027A2
:10209000B08900B100BF2F462C8A4CF6FF70044077
:1020A000F08804432C82AC894EF6F3100440B088CB
:1020B00031890843718908430443AC81AC8A4FF6E7
:1020C000FF400440B0890443AC8201A8FFF728FB1D
:1020D0001F48874202D1DDF810A001E0DDF80CA016
:1020E000A88900F4004040B10AEBCA0000EB0A10D6
:1020F00031684900B0FBF1F807E00AEBCA0000EBD9
:102100000A1031688900B0FBF1F86420B8FBF0F0E8
:1021100004012009642101FB1089A88900F4004012
:1021200040B1322000EBC900B0FBF1F000F0070035
:10213000044308E0322000EB09106421B0FBF1F009
:1021400000F00F0004432C8106B0BDE8F0870000CA
:102150000038014000BFFEE710B503460C469A4226
:1021600001D3D11A03E005481044401CC11AA14212
:1021700001D3012010BD0020FCE7000000CA9A3BFB
:10218000F0B505460C46164600200D4908600321AF
:10219000A02000F04DF8A906080E062100F048F82E
:1021A000002706E02078082100F06AF8641C781CFB
:1021B000C7B2B742F6DB01200149086000BFF0BD9D
:1021C0008081224210B5044600200849086000BF03
:1021D0000421802000F02CF80821204600F028F887
:1021E00001200349C1F8800100BF10BD8081224257
:1021F0000080224230B504460D4600200A4908609E
:102200000321A02000F014F8A106080E062100F01A
:102210000FF80421284600F033F801200349C1F8E3
:10222000800100BF30BD0000808122420080224238
:1022300010B5002216E000230F4C236000F080034D
:102240001BB10123241F236003E000230A4C241F39
:10225000236000BF00BF0123074C23604306180E14
:10226000531CDAB28A42E6DB0023034C2360034CA2
:10227000C4F8B83110BD0000BC0122420000224267
:1022800010B5002215E000230E4C236000F001037E
:102290001BB10123241F236003E00023094C241FEA
:1022A000236000BF00BF0123064C23604010531C75
:1022B000DAB28A42E7DB0023024C2360024CC4F806
:1022C000B83110BDBC0122420000224208B50121F4
:1022D0000820FFF715FA4FF40050ADF80000102069
:1022E0008DF8030003208DF8020069460748FEF7C9
:1022F000A2FD4FF48050ADF8000048208DF8030097
:1023000069460248FEF797FD08BD0000000C014039
:102310000548006820F470200349086008460068FA
:1023200040F4002008607047040C01400548006834
:1023300020F47020034908600846006840F44030EB
:1023400008607047040C01404FF0E021096921F05A
:1023500004014FF0E02211611146096941F00201C8
:10236000116141F2941151611146096941F0010175
:1023700011610021916170470246094B19680BE019
:10238000074B1868884201D3401A02E0054B03440A
:10239000581A904200D300E0F2E700BF70470000F7
:1023A0001801002000CA9A3B014605E0002000E029
:1023B000401CB0F5FA7FFBD30A1EA1F10101F5D153
:1023C0007047024600204FF0E02399690DE04FF07E
:1023D000E0239869884201D8081A03E041F2941377
:1023E0000B44181A904200D300E0F0E700BF70479A
:1023F00070B5044600F0F2FD0546207A2840217AA7
:10240000884202D0207800283ED02078062837D293
:10241000DFE800F003091A2C34351C4800686060BE
:10242000012020702FE0194800686168401A1428C4
:1024300009D9207A2840217A884202D102202070CE
:1024400001E0002020701EE0207A2840217A884296
:1024500009D10E4800686168401AB0F57A7F04D946
:102460000320207001E0042020700CE0207A284036
:10247000217A884201D00520207004E003E002E0C8
:102480000020207000BF00BF70BD000018010020B8
:102490001CB50124FEF75CF80A48012100238022C4
:1024A000CDE9001008A10C4800F0F2FF0446012C11
:1024B00002D100F029FD02E04FF0FF301CBD00BF4B
:1024C000FEE70000000000204170705461736B4310
:1024D00072656174650000004D04000830B5044663
:1024E00020781949896B88422CD16078032813D150
:1024F00094F83200401E255C4FF6FF7000EA052577
:1025000094F83200801E205C054394F83200811E4E
:102510002046FEF761F815E06078102812D194F893
:102520003200401E255C4FF6FF7000EA052594F846
:102530003200801E205C054394F83200811E204644
:10254000FEF74AF830BD00008C0100202DE9F04173
:1025500005460E461C4807681C480068001D00F030
:1025600091FB50B91948006890F82C100120884060
:1025700017490968814316480160681C38B936B1AB
:1025800012480168091D134800F0BAFB1AE07C19D3
:102590000E4800684460BC4207D20C480168091D1F
:1025A0000D48006800F092FB0CE008480168091D26
:1025B0000A48006800F08AFB09480068844201D29A
:1025C00007480460BDE8F081480100203401002084
:1025D0004C010020FC0600203C01002038010020B6
:1025E0006401002010B5044600F096FB2348006803
:1025F000401C224908602248006840B92048046015
:102600000846006801280DD100F072F90AE01D4863
:10261000006838B91A480068C06AE16A884201D87F
:102620001748046018480068401C1749086094F86F
:102630002C10012088401549096808431349086097
:10264000E16A01EB8101124A02EB8100211D00F0D9
:1026500057FB00F073FB0B48006868B1084800683E
:10266000C06AE16A884207D24FF080500949086089
:10267000BFF34F8FBFF36F8F10BD000044010020E8
:102680003401002050010020600100204C01002096
:102690002C04002004ED00E070B523E000F066FC9F
:1026A0001348006808B9012000E00020054600F04A
:1026B000FDFFBDB900F030FB0D48C068C468201DA7
:1026C00000F0E0FA0B480068401E0A4908600A481A
:1026D0000068401E0849086000F030FB204600F00A
:1026E00057F800BF044800680028D7D170BD00002B
:1026F000E8060020440100204001002070B5044697
:102700000D46206C70B1216CE0680844E06061689F
:10271000E068884201D32068E0602846226CE168C6
:10272000FDF7E0FD70BD2DE9F04104460F4615466A
:102730004FF00008A66B206C28B37DB93946226C97
:10274000A068FDF7CFFD216CA0680844A060D4E923
:102750000110884217D32068A06014E03946226C2B
:10276000E068FDF7BFFD216CE068401AE060216879
:10277000E068884203D2216C6068401AE060022D54
:1027800001D106B1761E701CA0634046BDE8F08101
:1027900010B50446206B00F0E1FA204600F0DEFAA6
:1027A00010BD000030B54FF48043174800F0070417
:1027B0002CB1C01D20F00700134C041B1B1B02464C
:1027C000124C22600024114D6C60D018083820F0A3
:1027D00007000F4C206000240D4D2D686C600C4DDF
:1027E0002D682C601146441A4C60094C24680C601A
:1027F000084D4C682C60084D4C682C604FF000442C
:10280000064D2C6030BD0000100700207001002034
:1028100078010020800100207C010020840100203C
:1028200000BFFFF739FF064800680128F9D94FF0CB
:10283000805004490860BFF34F8FBFF36F8FF0E7FC
:102840002C04002004ED00E02DE9F04106460D4681
:1028500017469846069C0DB9246000E02760E663A1
:1028600025640121204600F019FDBDE8F0812DE925
:10287000FF5F80460E469146DDE90E7A109CA9F175
:102880000100216B01EB800B2BF0070B002507E00B
:10289000715D04F134004155705D00B902E06D1CBA
:1028A000102DF5D300BF002143200155202F00D368
:1028B0001F27E762201D00F006FA04F1180000F05F
:1028C00002FA2461C7F12000A06164620020606404
:1028D00084F8480041465846039A00F059F92060B0
:1028E000BAF1000F01D0CAF80040BDE8FF9F000018
:1028F00010B5002407E004EB84010F4A02EB8100CD
:1029000000F0D4F9641C202CF5D30C4800F0CEF96B
:102910000B4800F0CBF90B4800F0C8F90A4800F06A
:10292000C5F90A4800F0C2F904480949086004489A
:102930000849086010BD00002C040020AC060020EF
:10294000C0060020D4060020E8060020FC06002077
:10295000380100203C01002010B50146164800E077
:10296000006803688B42FBD30246436813448B42E2
:1029700004D143684C682344436001460A464B68CF
:1029800013440468A34211D10C4C03682468A34289
:1029900008D04B680468646823444B6003681B6874
:1029A0000B6005E0054B1B680B6001E003680B60E2
:1029B000884200D0016010BD700100207801002025
:1029C00070B5054600F0A8F9A86B08B9012400E02D
:1029D000002400F0B3F9204670BD70B5054600F044
:1029E0009BF9A86BE96B884201D1012400E0002427
:1029F00000F0A4F9204670BD0A490968096809B9C0
:102A0000012100E0002121B14FF0FF31064A1160A1
:102A100006E004490968C968C868034A416811604A
:102A200070470000380100206401002000BF5020E2
:102A300080F31188BFF34F8FBFF36F8F00BF00BFCC
:102A4000FEE770B5044600F067F994F9455010E0D0
:102A5000606A08B9012000E0002038B904F12400C0
:102A600000F0E4FD18B100F02DFA00E003E0681E6C
:102A700045B2002DECDC00BFFF2084F8450000F0DB
:102A80005DF900F049F994F9445010E0206908B963
:102A9000012000E0002048B904F1100000F0C6FD5C
:102AA00008B100F00FFA681E45B200E001E0002D09
:102AB000ECDC00BFFF2084F8440000F03FF970BD5B
:102AC0002DE9F04105464FF0000800F04FFA2B4881
:102AD000006808B9FFF766FE29480068284000280A
:102AE00047D145B1083505F0070020B105F00700D2
:102AF000C0F108000544002D3BD022480068854203
:102B000037D8214E3046046801E0264624686068C4
:102B1000A84202D220680028F7D1184800688442F1
:102B200027D0306800F10808206830606068401BDA
:102B3000102807D967196068401B786065603846BF
:102B4000FFF70AFF0F4960680968081A0D49086015
:102B5000084600680D490968884203D209480068A0
:102B60000A490860064960680968084360600020F7
:102B7000206000F09BFD4046BDE8F0817801002018
:102B8000840100207C0100207001002080010020D1
:102B9000001F4FF080730360001F21F001030360EA
:102BA000001F034B03601438026020387047000098
:102BB0002D2A00082DE9F0418EB005460F464FF052
:102BC000000800240026DFF8B48000BF2FE0D8F80A
:102BD000000045F824002C2C06D142F22C31D5F807
:102BE000B000884200D024E055F8240004EB8401B2
:102BF000234A02EBC1014968884214DB55F82400DE
:102C000004EB840152F8311088420CDC3046711C10
:102C1000CEB201A90C5404EB8400114601EBC000B4
:102C2000806945F8240008F10408601CC4B2BC4265
:102C3000CDDB00BF42F22C31D5F8B000884211D074
:102C4000002409E004EB84000D4901EBC000806919
:102C500045F82400601CC4B2BC42F3DB3946284668
:102C600000F0D2F901A8805D01A988551EB90120A4
:102C70000EB0BDE8F0810020FAE7000000B80108BE
:102C8000343B000801460A69D1E901309860D1E976
:102C9000010358605068884201D188685060002064
:102CA00008611068401E10601068704700F108014C
:102CB00041604FF0FF31816000F10801C1600161A6
:102CC00000210160704700210161704710B5024684
:102CD0000B685C1C0CB9106907E002F1080000E009
:102CE0004068446824689C42FAD944684C604C6847
:102CF000A160886041600A611468641C146010BDA2
:102D000042684A6093688B6093685960916008617B
:102D100003685B1C0360704700BF502080F311887C
:102D2000BFF34F8FBFF36F8F00BF03480068401C95
:102D300001490860704700008801002006480068CB
:102D4000401E054908600846006820B9002080F34D
:102D5000118800BF00BF70478801002070B506468B
:102D60003546D6B1083D2C460C49606809680840D4
:102D700098B1206888B9094960680968884360602B
:102D800000F0F4F8064960680968084404490860DE
:102D90002046FFF7E1FD00F089FC70BD84010020B2
:102DA0007C010020064800684FF47A71B0FBF1F016
:102DB000401E4FF0E0214861072008617047000085
:102DC0001C00002070B50446002544B100F0CEF888
:102DD00000212046FFF7BAFB00F068FC05463DB92C
:102DE0004FF0805003490860BFF34F8FBFF36F8FE0
:102DF00070BD000004ED00E070B50546FFF78CFFE4
:102E000015B92748006800E028460446201DFFF752
:102E100039FF78B9E06A00EB8000224951F82000C0
:102E200040B994F82C10012088401F49096881435B
:102E30001D480160A06A18B104F11800FFF722FFD5
:102E40001A480068401C1949086015480068844207
:102E500009D1211D1648FFF753FF16480068401C92
:102E60001449086009E014480068401E12490860CF
:102E70002046FFF78DFCFFF7BFFDFFF75FFF0F4810
:102E8000006858B106480068844207D14FF080506E
:102E90000B490860BFF34F8FBFF36F8F70BD000009
:102EA000340100202C0400204C010020600100208F
:102EB000E8060020400100204401002050010020CD
:102EC00004ED00E00120014908607047580100202E
:102ED00070B505460C460548016818312846FFF7CD
:102EE000F5FE01212046FFF731FB70BD34010020C3
:102EF000034909680160034909684160704700009F
:102F00005C010020480100201CB5114800210B463F
:102F10008022CDE900100FA1104800F0B9FA044654
:102F2000012C14D100BF502080F31188BFF34F8FC4
:102F3000BFF36F8F00BF4FF0FF30094908600120D9
:102F40000849086000200849086000F0B9F81CBD75
:102F50006801002049444C45000000002128000879
:102F60006401002050010020480100200248006850
:102F7000401C0149086070476C010020124800683D
:102F800018B10120114908601DE000200F490860B8
:102F90000F480068B0FA80F0C0F11F0101EB810218
:102FA0000C4B03EB820042685268426000F1080259
:102FB0004368934202D14268526842604268D268D4
:102FC000054B1A6000BF70476C01002058010020BB
:102FD0004C0100202C0400203401002010B50024F6
:102FE0004FF400710748FDF7F9FF08B944F00104F8
:102FF00010210448FDF7F2FF08B944F0020420460E
:1030000010BD0000000C01402DE9F05F06460F46A0
:103010004FF000080024A34600254FF004094FF0AC
:10302000010AFDF7E9FE4FF0050B3420FDF75EFEC7
:1030300000BF08E020494A1402FB0810FDF75CFEBF
:10304000814608F10108D84502D2B9F1040FF1D048
:10305000194C0DE028466A1CD5B256F820102046BF
:10306000FDF794FE8146241DBD4201DB002505E0ED
:103070001248844202D2B9F1040FEBD000BFFDF731
:103080007BFE0D4C0EE022682846691CCDB256F836
:103090002000824201D04FF0000A241DBD4201DB16
:1030A000002505E00548844202D2BAF1000FEAD1BA
:1030B00000BF5046BDE8F09F00B8010800CC0108F1
:1030C00010B50A48006840F47000084908600846D6
:1030D000006840F070400860FFF764FE002004497B
:1030E0000860FDF7A5F8002010BD000020ED00E00D
:1030F0008801002010B500BF502080F31188BFF375
:103100004F8FBFF36F8F00BF00F002FA18B14FF07E
:1031100080500449086000BF002080F3118800BF80
:1031200010BD000004ED00E02DE9F84307460D4610
:1031300090460DB9002601E007FB05F606F14800B0
:10314000FFF7BEFC044644B104F1480943464A4631
:10315000294638460094FFF777FB2046BDE8F88300
:103160002DE9FF4782B0054689461E464FF0000A0A
:103170002C4600BFFFF7D0FDD4F83880B8F1000F1F
:1031800036D0E76849462046FFF7B8FAB6B9A8F145
:103190000100A063206908B9012000E0002008BBFD
:1031A00004F1100000F042FAE0B14FF080503A49CB
:1031B0000860BFF34F8FBFF36F8F13E0E760606A63
:1031C00008B9012000E0002060B904F1240000F0FB
:1031D0002DFA38B14FF080502F490860BFF34F8F60
:1031E000BFF36F8FFFF7AAFD012006B0BDE8F0879F
:1031F000049818B9FFF7A2FD0020F6E7BAF1000F16
:1032000004D16846FFF774FE4FF0010AFFF796FD00
:10321000FFF7ACFEFFF780FD94F94400401C10B9A5
:10322000002084F8440094F94500401C10B90020A7
:1032300084F84500FFF782FD04A9684600F0FAF81B
:10324000F0B92046FFF7BCFBA0B104F124000499BB
:10325000FFF73EFE2046FFF7F4FB00F027FA0028B8
:1032600088D14FF080500C490860BFF34F8FBFF3F7
:103270006F8F7FE72046FFF7E4FB00F017FA79E74E
:103280002046FFF7DEFB00F011FA2046FFF798FB1F
:103290000028EED00020A8E704ED00E070B5054658
:1032A0000E462C46FFF738FDD4E90F12206801FBCB
:1032B000020060600020A0632068A060E06B401EF8
:1032C000226C216800FB0210E060FF2084F84400BB
:1032D00084F845009EB9206908B9012000E000206B
:1032E000A8B904F1100000F0A1F980B14FF08050AE
:1032F00009490860BFF34F8FBFF36F8F07E004F1F8
:103300001000FFF7D3FC04F12400FFF7CFFCFFF718
:1033100015FD012070BD000004ED00E02DE9FF4324
:1033200083B0074688461D464FF000093C4600BF63
:10333000FFF7F2FCA06BE16B884201D3022D28D18C
:103340002A4641462046FFF7EEF90646606A08B96C
:10335000012000E0002068B904F1240000F066F9C3
:1033600088B14FF0805032490860BFF34F8FBFF3F0
:103370006F8F08E03EB14FF080502D490860BFF3D9
:103380004F8FBFF36F8FFFF7D9FC012007B0BDE867
:10339000F083059818B9FFF7D1FC0020F6E7B9F1E2
:1033A000000F04D101A8FFF7A3FD4FF00109FFF7BB
:1033B000C5FCFFF7DBFDFFF7AFFC94F94400401CB0
:1033C00010B9002084F8440094F94500401C10B95D
:1033D000002084F84500FFF7B1FC05A901A800F022
:1033E00029F8F0B92046FFF7F8FAA0B104F110006F
:1033F0000599FFF76DFD2046FFF723FB00F056F916
:10340000002895D14FF0805009490860BFF34F8FD5
:10341000BFF36F8F8CE72046FFF713FB00F046F9F0
:1034200086E72046FFF70DFB00F040F90020ADE7EE
:1034300004ED00E070B504460D46FFF76DFC124840
:1034400002682868401C08B9002619E00F49206866
:103450000968884204D06068904201D801260FE0D4
:103460006068101A2968884209D228686168511A70
:10347000401A28602046FFF73BFD002600E00126A9
:10348000FFF75CFC304670BD480100205C01002065
:103490002DE9FF4F85B0804689461746DDE912AB1E
:1034A000B800FFF70DFB064656B14C20FFF708FBAE
:1034B00004460CB1266304E03046FFF74FFC00E001
:1034C00000247CB10020CDE900ABCDE902403A46B2
:1034D00049464046089BFFF7CAF92046FFF782F8A5
:1034E000012501E04FF0FF35284609B0BDE8F08F17
:1034F0000549096809B9012005E00449096809B9C5
:10350000022000E000207047500100206C010020E4
:103510002DE9F04100273A480068002863D1394876
:103520000068451C374805608DB93748D0F80080E1
:1035300036480068344908603448C0F80080344890
:103540000068401C32490860FFF756FA00BF314856
:10355000006885423BD300BF2B480068006808B96B
:10356000012000E0002020B14FF0FF302949086021
:103570002CE025480068C068C4686668B54202D27D
:103580002448066022E0201DFFF77CFBA06A18B1EA
:1035900004F11800FFF776FB94F82C100120884006
:1035A0001D49096808431C490860E16A01EB810173
:1035B0001A4A02EB8100211DFFF7A2FB1849E06ABD
:1035C0000968C96A8842C7D30127C5E700BF144804
:1035D0000068C06A00EB8000104951F82000012803
:1035E00000D9012704E00F480068401C0D4908601D
:1035F0000D48006800B101273846BDE8F0810000A1
:103600006C01002048010020380100203C0100200E
:103610005C010020640100204C0100202C040020EB
:1036200034010020540100205801002070B50646E6
:10363000F068C46804F11800FFF724FB154800681F
:10364000A8B9201DFFF71EFB94F82C10012088401C
:1036500011490968084310490860E16A01EB8101DA
:103660000E4A02EB8100211DFFF74AFB04E004F142
:1036700018010B48FFF744FB0A49E06A0968C96A68
:10368000884204D9012501200749086000E000258F
:10369000284670BD6C0100204C0100202C04002045
:1036A000D4060020340100205801002070B5002409
:1036B0000026FFF731FB2E480068401E2C490860A9
:1036C0000846006800284FD12A48006800284BD0DF
:1036D00024E02948C068C46804F11800FFF7D2FA52
:1036E000201DFFF7CFFA94F82C10012088402349C1
:1036F0000968084321490860E16A01EB8101204A19
:1037000002EB8100211DFFF7FBFA1E49E06A096800
:10371000C96A884202D301201B4908601648006824
:1037200008B9012000E000200028D2D00CB1FFF73A
:1037300063F91648056865B100BFFFF7E9FE10B1EF
:103740000120114908606D1E002DF6D100200F499F
:1037500008600D48006838B1012630070C49086040
:10376000BFF34F8FBFF36F8FFFF7E8FA304670BD9E
:103770006C01002044010020D40600204C010020F0
:103780002C040020340100205801002054010020A6
:1037900004ED00E04FF47F0C1CEAD0121EBF1CEABF
:1037A000D11392EA0C0F93EA0C0F00F0858090EA97
:1037B000010F48BF42F4807240F4000C41F4000055
:1037C0002CF07F4120F07F4000B58142A2EB030244
:1037D0000FF2081CACEB504EC0F100009EF800E068
:1037E0004FEA4E0E00FB0EFC38BF49004FEA2C1C7E
:1037F00002F5FA020CFB0EF34FEACE1E4FEA112C33
:103800004FEAC1210EEB635E42EB22420EFB0CFC41
:103810004FEA1C5300FB03114FEA112C4FEA013110
:103820000EFB0CFC4FEADC4C00FB0C11C14228BF24
:1038300009184CEB03335DF804EB10EB410143EB4B
:10384000C250B2F57C0F38BF704729D512F0F00F87
:103850001CBF00F1C04000F000407047008182832F
:103860008485868788898B8C8D8E8F91929395968F
:1038700097999A9C9D9FA0A2A3A5A7A8AAACAEB019
:10388000B2B3B5B7B9BCBEC0C2C5C7C9CCCED1D41E
:10389000D7D9DCDFE2E6E9ECF0F3F7FAFE0000004E
:1038A0004FEA400C0CF1807CBCF17E4F28BF704782
:1038B000B0F1C04000F02BB990EA010F0CEAD1132F
:1038C00048BF42F48072624538BF634507D213F4A3
:1038D0007F0F16D080EA010000F00040704710B55D
:1038E00000F0CFF8097EFC3E00F005B880EA010048
:1038F00000F00040704780EA010000F0004000F056
:1039000006B912F47F0F04BF0248704780EA010035
:1039100000F0FDB80000C07F41000B0ED3F19E0205
:1039200008D950F400034FEA032323FA02F048BFFA
:103930004042704710B500F0A4F800BF49922480BF
:10394000002070476FF0004282EA200070470000BC
:1039500010F0004148BF4042B0FA80F310FA03F281
:10396000C3F19D030BD051EAC35101EB1220530662
:1039700038BF704700F1010008BF20F00100704718
:103980004FF47F0C1CEAD0121EBF1CEAD11392EA3E
:103990000C0F93EA0C0F00F0478090EA010F48BF2C
:1039A00042F480724FF0004C4CEA00204CEA0121B6
:1039B00002EB0302A0FB0113A2F50002002918BFCD
:1039C00043F001035B0028BF4FEA330342EB22427E
:1039D0005FEA132C4CEBC2502EBFBCEB436FB2F529
:1039E0007C0F70474FEA036CBCF1004F08BF20F01A
:1039F0000100B2F57C0F38BF70470BD582F0FF0293
:103A000012F5803FC8BF704700F1C040D8BF00F03A
:103A10000040704700F5000C5FEA4C0C48BF70474F
:103A2000B0F1C04000F073B890EA010F0CEAD11376
:103A300048BF42F48072624538BF634504D280EAD1
:103A4000010000F00040704710B500F01AF800BF08
:103A50008900013E00F007B800F009B85FEA410CA8
:103A60005FEA1C6C08D080EA010000F050B85FEA01
:103A7000400C5FEA1C6CF6D14FF00040A0F58000CE
:103A800070470EF1020E2EF0030E5EF8044B244236
:103A900004D44FEA4102B2F17F4F11D84FEA4003FC
:103AA000B3F17F4F0CD80ED14FEAD07CB2F17F4FEB
:103AB0000CEB4C0C0CF1020C08BF4CEBD17C04E07D
:103AC0004FF0080C01E04FEAD17C0CEB4C0324FAD8
:103AD00003F404F00704B4F1040C06D20EEB840CDA
:103AE000BDE810404CF0010C6047DFE80CF007081F
:103AF00002024FF00040A0F5800010BD08464200D1
:103B000018BFD2F1807288BF00F0004010BDFF21C5
:103B100041EAD050C005704760090000C0120000A3
:103B200080250000004B00000096000000E100002E
:103B300000C201000000000064000000010100005C
:103B40002A2A2A2A2A2A2A2A2A2A0000320000009F
:103B500032000000320000003200000000000000CF
:103B600064000000010100002A2A2A2A2A2A2A2A9F
:103B70002A2A00003200000032000000320000005B
:103B8000320000000000000064000000010100009D
:103B90002A2A2A2A2A2A2A2A2A2A0000320000004F
:103BA000320000003200000032000000000000007F
:103BB00064000000010100002A2A2A2A2A2A2A2A4F
:103BC0002A2A00003200000032000000320000000B
:103BD000320000000000000064000000010100004D
:103BE0002A2A2A2A2A2A2A2A2A2A000032000000FF
:103BF000320000003200000032000000000000002F
:103C000064000000010100002A2A2A2A2A2A2A2AFE
:103C10002A2A0000F40100003200000032000000F7
:103C200032000000000000006400000001010000FC
:103C30002A2A2A2A2A2A2A2A2A2A0000F4010000EB
:103C400032000000320000003200000000000000DE
:103C500064000000010100002A2A2A2A2A2A2A2AAE
:103C60002A2A00003200000032000000320000006A
:103C700032000000000000006400000001010000AC
:103C80002A2A2A2A2A2A2A2A2A2A0000320000005E
:103C9000320000003200000032000000000000008E
:103CA00064000000010100002A2A2A2A2A2A2A2A5E
:103CB0002A2A00003200000032000000320000001A
:103CC000320000000000000064000000010100005C
:103CD0002A2A2A2A2A2A2A2A2A2A0000320000000E
:103CE000320000003200000032000000000000003E
:103CF00064000000010100002A2A2A2A2A2A2A2A0E
:103D00002A2A0000320000003200000032000000C9
:103D1000320000000000000064000000010100000B
:103D20002A2A2A2A2A2A2A2A2A2A000032000000BD
:103D300032000000320000003200000000000000ED
:103D400064000000010100002A2A2A2A2A2A2A2ABD
:103D50002A2A000032000000320000003200000079
:103D600032000000000000006400000001010000BB
:103D70002A2A2A2A2A2A2A2A2A2A0000320000006D
:103D8000320000003200000032000000000000009D
:103D900064000000010100002A2A2A2A2A2A2A2A6D
:103DA0002A2A000032000000320000003200000029
:103DB000320000000000000064000000010100006B
:103DC0002A2A2A2A2A2A2A2A2A2A0000320000001D
:103DD000320000003200000032000000000000004D
:103DE00064000000010100002A2A2A2A2A2A2A2A1D
:103DF0002A2A0000320000003200000032000000D9
:103E0000320000000000000064000000010100001A
:103E10002A2A2A2A2A2A2A2A2A2A000032000000CC
:103E200032000000320000003200000000000000FC
:103E300064000000010100002A2A2A2A2A2A2A2ACC
:103E40002A2A000032000000320000003200000088
:103E500032000000000000006400000001010000CA
:103E60002A2A2A2A2A2A2A2A2A2A0000320000007C
:103E700032000000320000003200000000000000AC
:103E800064000000010100002A2A2A2A2A2A2A2A7C
:103E90002A2A000032000000320000003200000038
:103EA000320000000000000064000000010100007A
:103EB0002A2A2A2A2A2A2A2A2A2A0000320000002C
:103EC000320000003200000032000000000000005C
:103ED00064000000010100002A2A2A2A2A2A2A2A2C
:103EE0002A2A0000320000003200000032000000E8
:103EF000320000000000000064000000010100002A
:103F00002A2A2A2A2A2A2A2A2A2A000032000000DB
:103F1000320000003200000032000000000000000B
:103F200064000000010100002A2A2A2A2A2A2A2ADB
:103F30002A2A000032000000320000003200000097
:103F400032000000000000006400000001010000D9
:103F50002A2A2A2A2A2A2A2A2A2A0000320000008B
:103F600032000000320000003200000000000000BB
:103F700064000000010100002A2A2A2A2A2A2A2A8B
:103F80002A2A000032000000320000003200000047
:103F90003200000000000000640000000101000089
:103FA0002A2A2A2A2A2A2A2A2A2A0000320000003B
:103FB000320000003200000032000000000000006B
:103FC00064000000010100002A2A2A2A2A2A2A2A3B
:103FD0002A2A0000320000003200000032000000F7
:103FE0003200000000000000640000000101000039
:103FF0002A2A2A2A2A2A2A2A2A2A000032000000EB
:10400000320000003200000032000000000000001A
:1040100064000000010100002A2A2A2A2A2A2A2AEA
:104020002A2A0000320000003200000032000000A6
:1040300032000000000000006400000001010000E8
:104040002A2A2A2A2A2A2A2A2A2A0000320000009A
:1040500032000000320000003200000000000000CA
:1040600064000000010100002A2A2A2A2A2A2A2A9A
:104070002A2A000032000000320000003200000056
:104080003200000000000000640000000101000098
:104090002A2A2A2A2A2A2A2A2A2A0000320000004A
:1040A000320000003200000032000000000000007A
:1040B00064000000010100002A2A2A2A2A2A2A2A4A
:1040C0002A2A000032000000320000003200000006
:1040D0003200000000000000640000000101000048
:1040E0002A2A2A2A2A2A2A2A2A2A000032000000FA
:1040F000320000003200000032000000000000002A
:1041000064000000010100002A2A2A2A2A2A2A2AF9
:104110002A2A0000320000003200000032000000B5
:1041200032000000000000006400000001010000F7
:104130002A2A2A2A2A2A2A2A2A2A000032000000A9
:1041400032000000320000003200000000000000D9
:1041500064000000010100002A2A2A2A2A2A2A2AA9
:104160002A2A000032000000320000003200000065
:1041700032000000000000006400000001010000A7
:104180002A2A2A2A2A2A2A2A2A2A00003200000059
:104190003200000032000000320000000000000089
:1041A00064000000010100002A2A2A2A2A2A2A2A59
:1041B0002A2A000032000000320000003200000015
:1041C0003200000000000000640000000101000057
:1041D0002A2A2A2A2A2A2A2A2A2A00003200000009
:1041E0003200000032000000320000000000000039
:1041F00064000000010100002A2A2A2A2A2A2A2A09
:104200002A2A0000320000003200000032000000C4
:104210003200000000000000640000000101000006
:104220002A2A2A2A2A2A2A2A2A2A00002C2300009B
:1042300032000000320000003200000000000000E8
:1042400064000000010100002A2A2A2A2A2A2A2AB8
:104250002A2A000032000000320000003200000074
:1042600032000000000000006400000001010000B6
:104270002A2A2A2A2A2A2A2A2A2A00003200000068
:104280003200000032000000320000000000000098
:1042900064000000010100002A2A2A2A2A2A2A2A68
:1042A0002A2A000032000000320000003200000024
:1042B0003200000000000000640000000101000066
:1042C0002A2A2A2A2A2A2A2A2A2A00003200000018
:1042D0003200000032000000320000000000000048
:1042E00064000000010100002A2A2A2A2A2A2A2A18
:1042F0002A2A0000320000003200000032000000D4
:1043000032000000010000000A000000640000000C
:10431000E803000010270000A086010040420F00C3
:104320008096980000E1F50500CA9A3B4C430008CE
:10433000000000208C0100006C010008B043000860
:104340008C010020E44B0000C8010008011D8451CD
:10435000250200091401020304060708091011EBE5
:1043600060C7E56CADAFE0EFEDEE2F8B678F8EB3DE
:10437000040B1011BE067C5EC6DAFA0EFEDEEEF20B
:10438000B876F8E80B1A40B03C0137B20129B522E3
:10439000C01B20CC0401321214DAE03829FC2904B5
:1043A00000095406070809020406081AAA010000B9
:04000005080002A548
:00000001FF
